{
  "_format": "hh-sol-artifact-1",
  "contractName": "AINEONUnified",
  "sourceName": "contracts/AINEONUnified.sol",
  "abi": [
    {
      "inputs": [],
      "stateMutability": "nonpayable",
      "type": "constructor"
    },
    {
      "anonymous": false,
      "inputs": [
        {
          "indexed": false,
          "internalType": "uint256",
          "name": "profit",
          "type": "uint256"
        },
        {
          "indexed": false,
          "internalType": "uint256",
          "name": "timestamp",
          "type": "uint256"
        }
      ],
      "name": "$100MFlashLoanExecuted",
      "type": "event"
    },
    {
      "anonymous": false,
      "inputs": [
        {
          "indexed": false,
          "internalType": "uint256",
          "name": "cycle",
          "type": "uint256"
        },
        {
          "indexed": false,
          "internalType": "uint256",
          "name": "newProfitRate",
          "type": "uint256"
        },
        {
          "indexed": false,
          "internalType": "uint256",
          "name": "timestamp",
          "type": "uint256"
        }
      ],
      "name": "AIOptimized",
      "type": "event"
    },
    {
      "anonymous": false,
      "inputs": [
        {
          "indexed": false,
          "internalType": "enum AINEONUnified.BotTier",
          "name": "tier",
          "type": "uint8"
        },
        {
          "indexed": false,
          "internalType": "address",
          "name": "botAddress",
          "type": "address"
        }
      ],
      "name": "BotDeployed",
      "type": "event"
    },
    {
      "anonymous": false,
      "inputs": [
        {
          "indexed": false,
          "internalType": "address",
          "name": "user",
          "type": "address"
        },
        {
          "indexed": false,
          "internalType": "uint256",
          "name": "amount",
          "type": "uint256"
        }
      ],
      "name": "GaslessTradeExecuted",
      "type": "event"
    },
    {
      "anonymous": false,
      "inputs": [
        {
          "indexed": false,
          "internalType": "uint256",
          "name": "amount",
          "type": "uint256"
        },
        {
          "indexed": false,
          "internalType": "uint256",
          "name": "timestamp",
          "type": "uint256"
        }
      ],
      "name": "ProfitGenerated",
      "type": "event"
    },
    {
      "inputs": [],
      "name": "MAX_FLASH_LOAN",
      "outputs": [
        {
          "internalType": "uint256",
          "name": "",
          "type": "uint256"
        }
      ],
      "stateMutability": "view",
      "type": "function"
    },
    {
      "inputs": [
        {
          "internalType": "enum AINEONUnified.BotTier",
          "name": "",
          "type": "uint8"
        }
      ],
      "name": "bots",
      "outputs": [
        {
          "internalType": "address",
          "name": "",
          "type": "address"
        }
      ],
      "stateMutability": "view",
      "type": "function"
    },
    {
      "inputs": [],
      "name": "currentProfitRate",
      "outputs": [
        {
          "internalType": "uint256",
          "name": "",
          "type": "uint256"
        }
      ],
      "stateMutability": "view",
      "type": "function"
    },
    {
      "inputs": [],
      "name": "executeUnifiedArbitrage",
      "outputs": [],
      "stateMutability": "nonpayable",
      "type": "function"
    },
    {
      "inputs": [],
      "name": "executionEfficiency",
      "outputs": [
        {
          "internalType": "uint256",
          "name": "",
          "type": "uint256"
        }
      ],
      "stateMutability": "view",
      "type": "function"
    },
    {
      "inputs": [],
      "name": "getAIStatus",
      "outputs": [
        {
          "internalType": "uint256",
          "name": "cycles",
          "type": "uint256"
        },
        {
          "internalType": "uint256",
          "name": "profitRate",
          "type": "uint256"
        },
        {
          "internalType": "uint256",
          "name": "efficiency",
          "type": "uint256"
        },
        {
          "internalType": "uint256",
          "name": "nextOptimization",
          "type": "uint256"
        }
      ],
      "stateMutability": "view",
      "type": "function"
    },
    {
      "inputs": [],
      "name": "getOptimizedProfit",
      "outputs": [
        {
          "internalType": "uint256",
          "name": "",
          "type": "uint256"
        }
      ],
      "stateMutability": "view",
      "type": "function"
    },
    {
      "inputs": [],
      "name": "lastOptimization",
      "outputs": [
        {
          "internalType": "uint256",
          "name": "",
          "type": "uint256"
        }
      ],
      "stateMutability": "view",
      "type": "function"
    },
    {
      "inputs": [],
      "name": "learningRate",
      "outputs": [
        {
          "internalType": "uint256",
          "name": "",
          "type": "uint256"
        }
      ],
      "stateMutability": "view",
      "type": "function"
    },
    {
      "inputs": [],
      "name": "marketVolatility",
      "outputs": [
        {
          "internalType": "uint256",
          "name": "",
          "type": "uint256"
        }
      ],
      "stateMutability": "view",
      "type": "function"
    },
    {
      "inputs": [],
      "name": "optimizationCount",
      "outputs": [
        {
          "internalType": "uint256",
          "name": "",
          "type": "uint256"
        }
      ],
      "stateMutability": "view",
      "type": "function"
    },
    {
      "inputs": [],
      "name": "owner",
      "outputs": [
        {
          "internalType": "address",
          "name": "",
          "type": "address"
        }
      ],
      "stateMutability": "view",
      "type": "function"
    },
    {
      "inputs": [
        {
          "internalType": "enum AINEONUnified.BotTier",
          "name": "tier",
          "type": "uint8"
        },
        {
          "internalType": "address",
          "name": "bot",
          "type": "address"
        }
      ],
      "name": "setBotAddress",
      "outputs": [],
      "stateMutability": "nonpayable",
      "type": "function"
    },
    {
      "inputs": [],
      "name": "totalProfits",
      "outputs": [
        {
          "internalType": "uint256",
          "name": "",
          "type": "uint256"
        }
      ],
      "stateMutability": "view",
      "type": "function"
    },
    {
      "inputs": [],
      "name": "withdrawProfits",
      "outputs": [],
      "stateMutability": "nonpayable",
      "type": "function"
    },
    {
      "stateMutability": "payable",
      "type": "receive"
    }
  ],
  "bytecode": "0x60806040526019600355606460055534801561001a57600080fd5b50336000806101000a81548173ffffffffffffffffffffffffffffffffffffffff021916908373ffffffffffffffffffffffffffffffffffffffff16021790555042600481905550610e63806100716000396000f3fe6080604052600436106100ec5760003560e01c80633f8190dc1161008a578063810a862c11610059578063810a862c146102bc5780638da5cb5b146102e7578063bd998cb314610312578063ce8b32501461033d576100f3565b80633f8190dc146101fb5780634c3f89bd14610229578063703a129614610254578063759d479314610291576100f3565b80632da13625116100c65780632da13625146101655780633766bf191461018e57806339913e09146101b95780633c635a15146101d0576100f3565b8063011e7b08146100f857806306e2e6ea146101235780631d0affe61461013a576100f3565b366100f357005b600080fd5b34801561010457600080fd5b5061010d610368565b60405161011a9190610a07565b60405180910390f35b34801561012f57600080fd5b5061013861036e565b005b34801561014657600080fd5b5061014f6103fd565b60405161015c9190610a07565b60405180910390f35b34801561017157600080fd5b5061018c60048036038101906101879190610aaa565b610403565b005b34801561019a57600080fd5b506101a36104b6565b6040516101b09190610a07565b60405180910390f35b3480156101c557600080fd5b506101ce6104bc565b005b3480156101dc57600080fd5b506101e561052f565b6040516101f29190610a07565b60405180910390f35b34801561020757600080fd5b50610210610535565b6040516102209493929190610aea565b60405180910390f35b34801561023557600080fd5b5061023e610561565b60405161024b9190610a07565b60405180910390f35b34801561026057600080fd5b5061027b60048036038101906102769190610b2f565b610567565b6040516102889190610b6b565b60405180910390f35b34801561029d57600080fd5b506102a661059a565b6040516102b39190610a07565b60405180910390f35b3480156102c857600080fd5b506102d16105a0565b6040516102de9190610a07565b60405180910390f35b3480156102f357600080fd5b506102fc6105cd565b6040516103099190610b6b565b60405180910390f35b34801561031e57600080fd5b506103276105f1565b6040516103349190610a07565b60405180910390f35b34801561034957600080fd5b506103526105f7565b60405161035f9190610a07565b60405180910390f35b60045481565b603c60045461037d9190610bb5565b421061038c5761038b610606565b5b60006103966106c3565b90506103a06106f5565b6103a861073b565b80600160008282546103ba9190610bb5565b925050819055507f2a91682c71693090d6aa753e3d3cb5942fe6b7200f45f781dd0ab8fc826f81e081426040516103f2929190610be9565b60405180910390a150565b60025481565b806008600084600381111561041b5761041a610c12565b5b600381111561042d5761042c610c12565b5b815260200190815260200160002060006101000a81548173ffffffffffffffffffffffffffffffffffffffff021916908373ffffffffffffffffffffffffffffffffffffffff1602179055507f7f0c44cc6a585c2e3dc25266d9a1ea74ce0ad4a73dd184528f54fa2a014b8a4282826040516104aa929190610c89565b60405180910390a15050565b60055481565b60008054906101000a900473ffffffffffffffffffffffffffffffffffffffff1673ffffffffffffffffffffffffffffffffffffffff166108fc6001549081150290604051600060405180830381858888f19350505050158015610524573d6000803e3d6000fd5b506000600181905550565b60075481565b600080600080600254600354600754603c6004546105539190610bb5565b935093509350935090919293565b60035481565b60086020528060005260406000206000915054906101000a900473ffffffffffffffffffffffffffffffffffffffff1681565b60065481565b60006127106003546a52b7d2dcc80cd2e40000006105be9190610cb2565b6105c89190610d23565b905090565b60008054906101000a900473ffffffffffffffffffffffffffffffffffffffff1681565b60015481565b6a52b7d2dcc80cd2e400000081565b6002600081548092919061061990610d54565b9190505550610626610983565b61062e6109c9565b6106366109ec565b6000600a6002546106479190610d9c565b036106675760016003600082825461065f9190610bb5565b925050819055505b6064600354111561067b5760646003819055505b426004819055507fc261ffc6367c8dd96d12b0a80af0ff6b0c303fd212a92b8c3859c68bb484c5bf600254600354426040516106b993929190610dcd565b60405180910390a1565b6000806127106003546a52b7d2dcc80cd2e40000006106e29190610cb2565b6106ec9190610d23565b90508091505090565b7f308d7d875e72491889f00c362b0a2f7e5f8d9b0448dca3195fdde0d0b8bcce90336a52b7d2dcc80cd2e4000000604051610731929190610e04565b60405180910390a1565b7f7f0c44cc6a585c2e3dc25266d9a1ea74ce0ad4a73dd184528f54fa2a014b8a4260006008600080600381111561077557610774610c12565b5b600381111561078757610786610c12565b5b815260200190815260200160002060009054906101000a900473ffffffffffffffffffffffffffffffffffffffff166040516107c4929190610c89565b60405180910390a17f7f0c44cc6a585c2e3dc25266d9a1ea74ce0ad4a73dd184528f54fa2a014b8a426001600860006001600381111561080757610806610c12565b5b600381111561081957610818610c12565b5b815260200190815260200160002060009054906101000a900473ffffffffffffffffffffffffffffffffffffffff16604051610856929190610c89565b60405180910390a17f7f0c44cc6a585c2e3dc25266d9a1ea74ce0ad4a73dd184528f54fa2a014b8a426002600860006002600381111561089957610898610c12565b5b60038111156108ab576108aa610c12565b5b815260200190815260200160002060009054906101000a900473ffffffffffffffffffffffffffffffffffffffff166040516108e8929190610c89565b60405180910390a17f7f0c44cc6a585c2e3dc25266d9a1ea74ce0ad4a73dd184528f54fa2a014b8a4260036008600060038081111561092a57610929610c12565b5b600381111561093c5761093b610c12565b5b815260200190815260200160002060009054906101000a900473ffffffffffffffffffffffffffffffffffffffff16604051610979929190610c89565b60405180910390a1565b601e6046426109929190610d9c565b61099c9190610bb5565b600681905550603c60065411156109c75760058060008282546109bf9190610bb5565b925050819055505b565b60146002546109d89190610d9c565b60506109e49190610bb5565b600781905550565b565b6000819050919050565b610a01816109ee565b82525050565b6000602082019050610a1c60008301846109f8565b92915050565b600080fd5b60048110610a3457600080fd5b50565b600081359050610a4681610a27565b92915050565b600073ffffffffffffffffffffffffffffffffffffffff82169050919050565b6000610a7782610a4c565b9050919050565b610a8781610a6c565b8114610a9257600080fd5b50565b600081359050610aa481610a7e565b92915050565b60008060408385031215610ac157610ac0610a22565b5b6000610acf85828601610a37565b9250506020610ae085828601610a95565b9150509250929050565b6000608082019050610aff60008301876109f8565b610b0c60208301866109f8565b610b1960408301856109f8565b610b2660608301846109f8565b95945050505050565b600060208284031215610b4557610b44610a22565b5b6000610b5384828501610a37565b91505092915050565b610b6581610a6c565b82525050565b6000602082019050610b806000830184610b5c565b92915050565b7f4e487b7100000000000000000000000000000000000000000000000000000000600052601160045260246000fd5b6000610bc0826109ee565b9150610bcb836109ee565b9250828201905080821115610be357610be2610b86565b5b92915050565b6000604082019050610bfe60008301856109f8565b610c0b60208301846109f8565b9392505050565b7f4e487b7100000000000000000000000000000000000000000000000000000000600052602160045260246000fd5b60048110610c5257610c51610c12565b5b50565b6000819050610c6382610c41565b919050565b6000610c7382610c55565b9050919050565b610c8381610c68565b82525050565b6000604082019050610c9e6000830185610c7a565b610cab6020830184610b5c565b9392505050565b6000610cbd826109ee565b9150610cc8836109ee565b9250828202610cd6816109ee565b91508282048414831517610ced57610cec610b86565b5b5092915050565b7f4e487b7100000000000000000000000000000000000000000000000000000000600052601260045260246000fd5b6000610d2e826109ee565b9150610d39836109ee565b925082610d4957610d48610cf4565b5b828204905092915050565b6000610d5f826109ee565b91507fffffffffffffffffffffffffffffffffffffffffffffffffffffffffffffffff8203610d9157610d90610b86565b5b600182019050919050565b6000610da7826109ee565b9150610db2836109ee565b925082610dc257610dc1610cf4565b5b828206905092915050565b6000606082019050610de260008301866109f8565b610def60208301856109f8565b610dfc60408301846109f8565b949350505050565b6000604082019050610e196000830185610b5c565b610e2660208301846109f8565b939250505056fea26469706673582212206cec0191813fb73a62c0a9a1b3c18ebe492441c4d2746c37933cbb62d172426a64736f6c63430008130033",
  "linkReferences": {},
  "deployedLinkReferences": {}
}