{
  "_format": "hh-sol-artifact-1",
  "contractName": "BotOrchestrator",
  "sourceName": "contracts/BotOrchestrator.sol",
  "abi": [
    {
      "inputs": [],
      "stateMutability": "nonpayable",
      "type": "constructor"
    },
    {
      "inputs": [],
      "name": "orchestrateBots",
      "outputs": [
        {
          "internalType": "bool",
          "name": "",
          "type": "bool"
        }
      ],
      "stateMutability": "pure",
      "type": "function"
    },
    {
      "inputs": [],
      "name": "owner",
      "outputs": [
        {
          "internalType": "address",
          "name": "",
          "type": "address"
        }
      ],
      "stateMutability": "view",
      "type": "function"
    }
  ],
  "bytecode": "0x608060405234801561001057600080fd5b50336000806101000a81548173ffffffffffffffffffffffffffffffffffffffff021916908373ffffffffffffffffffffffffffffffffffffffff16021790555061016c806100606000396000f3fe608060405234801561001057600080fd5b50600436106100365760003560e01c8063031b47941461003b5780638da5cb5b14610059575b600080fd5b610043610077565b60405161005091906100bf565b60405180910390f35b610061610080565b60405161006e919061011b565b60405180910390f35b60006001905090565b60008054906101000a900473ffffffffffffffffffffffffffffffffffffffff1681565b60008115159050919050565b6100b9816100a4565b82525050565b60006020820190506100d460008301846100b0565b92915050565b600073ffffffffffffffffffffffffffffffffffffffff82169050919050565b6000610105826100da565b9050919050565b610115816100fa565b82525050565b6000602082019050610130600083018461010c565b9291505056fea26469706673582212204aac80859e80c182a22ffc3f8283c10c6b4fdbb11468a5f9ad226c341a67fefd64736f6c63430008130033",
  "linkReferences": {},
  "deployedLinkReferences": {}
}