{
  "_format": "hh-sol-artifact-1",
  "contractName": "GaslessTrading",
  "sourceName": "contracts/GaslessTrading.sol",
  "abi": [
    {
      "inputs": [],
      "stateMutability": "nonpayable",
      "type": "constructor"
    },
    {
      "inputs": [],
      "name": "executeGaslessTrade",
      "outputs": [
        {
          "internalType": "bool",
          "name": "",
          "type": "bool"
        }
      ],
      "stateMutability": "pure",
      "type": "function"
    },
    {
      "inputs": [],
      "name": "owner",
      "outputs": [
        {
          "internalType": "address",
          "name": "",
          "type": "address"
        }
      ],
      "stateMutability": "view",
      "type": "function"
    }
  ],
  "bytecode": "0x608060405234801561001057600080fd5b50336000806101000a81548173ffffffffffffffffffffffffffffffffffffffff021916908373ffffffffffffffffffffffffffffffffffffffff16021790555061016c806100606000396000f3fe608060405234801561001057600080fd5b50600436106100365760003560e01c80638da5cb5b1461003b578063f32ecfbe14610059575b600080fd5b610043610077565b60405161005091906100e5565b60405180910390f35b61006161009b565b60405161006e919061011b565b60405180910390f35b60008054906101000a900473ffffffffffffffffffffffffffffffffffffffff1681565b60006001905090565b600073ffffffffffffffffffffffffffffffffffffffff82169050919050565b60006100cf826100a4565b9050919050565b6100df816100c4565b82525050565b60006020820190506100fa60008301846100d6565b92915050565b60008115159050919050565b61011581610100565b82525050565b6000602082019050610130600083018461010c565b9291505056fea26469706673582212200772016280fdb359e0e2df086cc1517987401faabc79d55802a7db8a782ac86664736f6c63430008130033",
  "linkReferences": {},
  "deployedLinkReferences": {}
}