{
  "_format": "hh-sol-artifact-1",
  "contractName": "SelfOptimizingAI",
  "sourceName": "contracts/SelfOptimizingAI.sol",
  "abi": [
    {
      "inputs": [],
      "stateMutability": "nonpayable",
      "type": "constructor"
    },
    {
      "anonymous": false,
      "inputs": [
        {
          "indexed": false,
          "internalType": "uint256",
          "name": "cycle",
          "type": "uint256"
        },
        {
          "indexed": false,
          "internalType": "uint256",
          "name": "newProfitRate",
          "type": "uint256"
        },
        {
          "indexed": false,
          "internalType": "uint256",
          "name": "timestamp",
          "type": "uint256"
        }
      ],
      "name": "AIOptimized",
      "type": "event"
    },
    {
      "anonymous": false,
      "inputs": [
        {
          "indexed": false,
          "internalType": "uint256",
          "name": "responseTime",
          "type": "uint256"
        },
        {
          "indexed": false,
          "internalType": "uint256",
          "name": "accuracy",
          "type": "uint256"
        }
      ],
      "name": "BotParametersCalibrated",
      "type": "event"
    },
    {
      "anonymous": false,
      "inputs": [
        {
          "indexed": false,
          "internalType": "uint256",
          "name": "volatility",
          "type": "uint256"
        },
        {
          "indexed": false,
          "internalType": "uint256",
          "name": "liquidity",
          "type": "uint256"
        }
      ],
      "name": "MarketConditionUpdated",
      "type": "event"
    },
    {
      "inputs": [],
      "name": "continuousOptimization",
      "outputs": [],
      "stateMutability": "nonpayable",
      "type": "function"
    },
    {
      "inputs": [],
      "name": "currentProfitRate",
      "outputs": [
        {
          "internalType": "uint256",
          "name": "",
          "type": "uint256"
        }
      ],
      "stateMutability": "view",
      "type": "function"
    },
    {
      "inputs": [],
      "name": "executionEfficiency",
      "outputs": [
        {
          "internalType": "uint256",
          "name": "",
          "type": "uint256"
        }
      ],
      "stateMutability": "view",
      "type": "function"
    },
    {
      "inputs": [],
      "name": "getAIStatus",
      "outputs": [
        {
          "internalType": "uint256",
          "name": "cycles",
          "type": "uint256"
        },
        {
          "internalType": "uint256",
          "name": "profitRate",
          "type": "uint256"
        },
        {
          "internalType": "uint256",
          "name": "efficiency",
          "type": "uint256"
        },
        {
          "internalType": "uint256",
          "name": "nextOptimization",
          "type": "uint256"
        }
      ],
      "stateMutability": "view",
      "type": "function"
    },
    {
      "inputs": [],
      "name": "getNextOptimizationTime",
      "outputs": [
        {
          "internalType": "uint256",
          "name": "",
          "type": "uint256"
        }
      ],
      "stateMutability": "view",
      "type": "function"
    },
    {
      "inputs": [],
      "name": "getOptimizedProfitRate",
      "outputs": [
        {
          "internalType": "uint256",
          "name": "",
          "type": "uint256"
        }
      ],
      "stateMutability": "view",
      "type": "function"
    },
    {
      "inputs": [],
      "name": "lastOptimization",
      "outputs": [
        {
          "internalType": "uint256",
          "name": "",
          "type": "uint256"
        }
      ],
      "stateMutability": "view",
      "type": "function"
    },
    {
      "inputs": [],
      "name": "learningRate",
      "outputs": [
        {
          "internalType": "uint256",
          "name": "",
          "type": "uint256"
        }
      ],
      "stateMutability": "view",
      "type": "function"
    },
    {
      "inputs": [],
      "name": "marketVolatilityFactor",
      "outputs": [
        {
          "internalType": "uint256",
          "name": "",
          "type": "uint256"
        }
      ],
      "stateMutability": "view",
      "type": "function"
    },
    {
      "inputs": [],
      "name": "optimizationCount",
      "outputs": [
        {
          "internalType": "uint256",
          "name": "",
          "type": "uint256"
        }
      ],
      "stateMutability": "view",
      "type": "function"
    },
    {
      "inputs": [],
      "name": "owner",
      "outputs": [
        {
          "internalType": "address",
          "name": "",
          "type": "address"
        }
      ],
      "stateMutability": "view",
      "type": "function"
    },
    {
      "inputs": [],
      "name": "spreadOptimization",
      "outputs": [
        {
          "internalType": "uint256",
          "name": "",
          "type": "uint256"
        }
      ],
      "stateMutability": "view",
      "type": "function"
    }
  ],
  "bytecode": "0x608060405234801561001057600080fd5b50336000806101000a81548173ffffffffffffffffffffffffffffffffffffffff021916908373ffffffffffffffffffffffffffffffffffffffff1602179055504260018190555060196003819055506064600481905550610a44806100776000396000f3fe608060405234801561001057600080fd5b50600436106100b45760003560e01c80634c3f89bd116100715780634c3f89bd1461015c5780635415fec21461017a5780638da5cb5b14610198578063a2f81741146101b6578063a74331df146101d4578063d1d60beb146101f2576100b4565b8063011e7b08146100b95780631d0affe6146100d75780631eeb166b146100f55780633766bf19146100ff5780633c635a151461011d5780633f8190dc1461013b575b600080fd5b6100c1610210565b6040516100ce91906106c3565b60405180910390f35b6100df610216565b6040516100ec91906106c3565b60405180910390f35b6100fd61021c565b005b6101076102f5565b60405161011491906106c3565b60405180910390f35b6101256102fb565b60405161013291906106c3565b60405180910390f35b610143610301565b60405161015394939291906106de565b60405180910390f35b61016461032d565b60405161017191906106c3565b60405180910390f35b610182610333565b60405161018f91906106c3565b60405180910390f35b6101a061033d565b6040516101ad9190610764565b60405180910390f35b6101be610361565b6040516101cb91906106c3565b60405180910390f35b6101dc610377565b6040516101e991906106c3565b60405180910390f35b6101fa61037d565b60405161020791906106c3565b60405180910390f35b60015481565b60025481565b603c60015461022b91906107ae565b42101561026d576040517f08c379a00000000000000000000000000000000000000000000000000000000081526004016102649061083f565b60405180910390fd5b610275610383565b61027d6103ec565b61028561046a565b61028d6104cb565b610295610556565b600260008154809291906102a89061085f565b9190505550426001819055507fc261ffc6367c8dd96d12b0a80af0ff6b0c303fd212a92b8c3859c68bb484c5bf600254600354426040516102eb939291906108a7565b60405180910390a1565b60045481565b60065481565b600080600080600254600354600654603c60015461031f91906107ae565b935093509350935090919293565b60035481565b6000600354905090565b60008054906101000a900473ffffffffffffffffffffffffffffffffffffffff1681565b6000603c60015461037291906107ae565b905090565b60075481565b60055481565b600061038d61058c565b905060508111156103b7576005600460008282546103ab91906107ae565b925050819055506103e9565b60328110156103e857600a600454116103d157600a6103e1565b60026004546103e091906108de565b5b6004819055505b5b50565b6103f46105ae565b60058190555060006104046105ce565b90506046600554111561042c5760016003600082825461042491906107ae565b925050819055505b7fa42dfb8e08b74fa70f161371e34b0c52492d2b84ac2116481f2bdc213beb894f6005548260405161045f929190610912565b60405180910390a150565b60006104746105ee565b90506000610480610601565b90506000600a600254610493919061096a565b036104b3576001600360008282546104ab91906107ae565b925050819055505b606460035411156104c75760646003819055505b5050565b60006104d5610622565b905060006104e1610644565b905060006104ed610666565b905060038183856104fe91906107ae565b61050891906107ae565b610512919061099b565b6006819055507f70b963caf5ccc7bd5beed1d483fa0a15efc2d32af8b11d4969adef3bea07fd878284604051610549929190610912565b60405180910390a1505050565b61055e610688565b6007819055506050600754111561058a5760026003600082825461058291906107ae565b925050819055505b565b60006064600a60025461059f91906109cc565b6105a9919061096a565b905090565b6000601e6046426105bf919061096a565b6105c991906107ae565b905090565b600060146050426105df919061096a565b6105e991906107ae565b905090565b60006a52b7d2dcc80cd2e4000000905090565b600060646101f442610613919061096a565b61061d91906107ae565b905090565b6000600f600254610633919061096a565b605561063f91906107ae565b905090565b60006032600254610655919061096a565b60c861066191906108de565b905090565b6000600a600254610677919061096a565b605a61068391906107ae565b905090565b6000601e600254610699919061096a565b60466106a591906107ae565b905090565b6000819050919050565b6106bd816106aa565b82525050565b60006020820190506106d860008301846106b4565b92915050565b60006080820190506106f360008301876106b4565b61070060208301866106b4565b61070d60408301856106b4565b61071a60608301846106b4565b95945050505050565b600073ffffffffffffffffffffffffffffffffffffffff82169050919050565b600061074e82610723565b9050919050565b61075e81610743565b82525050565b60006020820190506107796000830184610755565b92915050565b7f4e487b7100000000000000000000000000000000000000000000000000000000600052601160045260246000fd5b60006107b9826106aa565b91506107c4836106aa565b92508282019050808211156107dc576107db61077f565b5b92915050565b600082825260208201905092915050565b7f4f7074696d697a6174696f6e20636f6f6c646f776e0000000000000000000000600082015250565b60006108296015836107e2565b9150610834826107f3565b602082019050919050565b600060208201905081810360008301526108588161081c565b9050919050565b600061086a826106aa565b91507fffffffffffffffffffffffffffffffffffffffffffffffffffffffffffffffff820361089c5761089b61077f565b5b600182019050919050565b60006060820190506108bc60008301866106b4565b6108c960208301856106b4565b6108d660408301846106b4565b949350505050565b60006108e9826106aa565b91506108f4836106aa565b925082820390508181111561090c5761090b61077f565b5b92915050565b600060408201905061092760008301856106b4565b61093460208301846106b4565b9392505050565b7f4e487b7100000000000000000000000000000000000000000000000000000000600052601260045260246000fd5b6000610975826106aa565b9150610980836106aa565b9250826109905761098f61093b565b5b828206905092915050565b60006109a6826106aa565b91506109b1836106aa565b9250826109c1576109c061093b565b5b828204905092915050565b60006109d7826106aa565b91506109e2836106aa565b92508282026109f0816106aa565b91508282048414831517610a0757610a0661077f565b5b509291505056fea2646970667358221220a664ec9d531ac3c035622be4cd74b51871b9955d2aef4f53d610d9f137e3924064736f6c63430008130033",
  "linkReferences": {},
  "deployedLinkReferences": {}
}