{"contracts/AINEONUnified.sol":{"AINEONUnified":{"abi":[{"inputs":[],"stateMutability":"nonpayable","type":"constructor"},{"anonymous":false,"inputs":[{"indexed":false,"internalType":"uint256","name":"profit","type":"uint256"},{"indexed":false,"internalType":"uint256","name":"timestamp","type":"uint256"}],"name":"$100MFlashLoanExecuted","type":"event"},{"anonymous":false,"inputs":[{"indexed":false,"internalType":"uint256","name":"cycle","type":"uint256"},{"indexed":false,"internalType":"uint256","name":"newProfitRate","type":"uint256"},{"indexed":false,"internalType":"uint256","name":"timestamp","type":"uint256"}],"name":"AIOptimized","type":"event"},{"anonymous":false,"inputs":[{"indexed":false,"internalType":"enum AINEONUnified.BotTier","name":"tier","type":"uint8"},{"indexed":false,"internalType":"address","name":"botAddress","type":"address"}],"name":"BotDeployed","type":"event"},{"anonymous":false,"inputs":[{"indexed":false,"internalType":"address","name":"user","type":"address"},{"indexed":false,"internalType":"uint256","name":"amount","type":"uint256"}],"name":"GaslessTradeExecuted","type":"event"},{"anonymous":false,"inputs":[{"indexed":false,"internalType":"uint256","name":"amount","type":"uint256"},{"indexed":false,"internalType":"uint256","name":"timestamp","type":"uint256"}],"name":"ProfitGenerated","type":"event"},{"inputs":[],"name":"MAX_FLASH_LOAN","outputs":[{"internalType":"uint256","name":"","type":"uint256"}],"stateMutability":"view","type":"function"},{"inputs":[{"internalType":"enum AINEONUnified.BotTier","name":"","type":"uint8"}],"name":"bots","outputs":[{"internalType":"address","name":"","type":"address"}],"stateMutability":"view","type":"function"},{"inputs":[],"name":"currentProfitRate","outputs":[{"internalType":"uint256","name":"","type":"uint256"}],"stateMutability":"view","type":"function"},{"inputs":[],"name":"executeUnifiedArbitrage","outputs":[],"stateMutability":"nonpayable","type":"function"},{"inputs":[],"name":"executionEfficiency","outputs":[{"internalType":"uint256","name":"","type":"uint256"}],"stateMutability":"view","type":"function"},{"inputs":[],"name":"getAIStatus","outputs":[{"internalType":"uint256","name":"cycles","type":"uint256"},{"internalType":"uint256","name":"profitRate","type":"uint256"},{"internalType":"uint256","name":"efficiency","type":"uint256"},{"internalType":"uint256","name":"nextOptimization","type":"uint256"}],"stateMutability":"view","type":"function"},{"inputs":[],"name":"getOptimizedProfit","outputs":[{"internalType":"uint256","name":"","type":"uint256"}],"stateMutability":"view","type":"function"},{"inputs":[],"name":"lastOptimization","outputs":[{"internalType":"uint256","name":"","type":"uint256"}],"stateMutability":"view","type":"function"},{"inputs":[],"name":"learningRate","outputs":[{"internalType":"uint256","name":"","type":"uint256"}],"stateMutability":"view","type":"function"},{"inputs":[],"name":"marketVolatility","outputs":[{"internalType":"uint256","name":"","type":"uint256"}],"stateMutability":"view","type":"function"},{"inputs":[],"name":"optimizationCount","outputs":[{"internalType":"uint256","name":"","type":"uint256"}],"stateMutability":"view","type":"function"},{"inputs":[],"name":"owner","outputs":[{"internalType":"address","name":"","type":"address"}],"stateMutability":"view","type":"function"},{"inputs":[{"internalType":"enum AINEONUnified.BotTier","name":"tier","type":"uint8"},{"internalType":"address","name":"bot","type":"address"}],"name":"setBotAddress","outputs":[],"stateMutability":"nonpayable","type":"function"},{"inputs":[],"name":"totalProfits","outputs":[{"internalType":"uint256","name":"","type":"uint256"}],"stateMutability":"view","type":"function"},{"inputs":[],"name":"withdrawProfits","outputs":[],"stateMutability":"nonpayable","type":"function"},{"stateMutability":"payable","type":"receive"}],"evm":{"bytecode":{"linkReferences":{},"object":"60806040526019600355606460055534801561001a57600080fd5b50336000806101000a81548173ffffffffffffffffffffffffffffffffffffffff021916908373ffffffffffffffffffffffffffffffffffffffff16021790555042600481905550610e63806100716000396000f3fe6080604052600436106100ec5760003560e01c80633f8190dc1161008a578063810a862c11610059578063810a862c146102bc5780638da5cb5b146102e7578063bd998cb314610312578063ce8b32501461033d576100f3565b80633f8190dc146101fb5780634c3f89bd14610229578063703a129614610254578063759d479314610291576100f3565b80632da13625116100c65780632da13625146101655780633766bf191461018e57806339913e09146101b95780633c635a15146101d0576100f3565b8063011e7b08146100f857806306e2e6ea146101235780631d0affe61461013a576100f3565b366100f357005b600080fd5b34801561010457600080fd5b5061010d610368565b60405161011a9190610a07565b60405180910390f35b34801561012f57600080fd5b5061013861036e565b005b34801561014657600080fd5b5061014f6103fd565b60405161015c9190610a07565b60405180910390f35b34801561017157600080fd5b5061018c60048036038101906101879190610aaa565b610403565b005b34801561019a57600080fd5b506101a36104b6565b6040516101b09190610a07565b60405180910390f35b3480156101c557600080fd5b506101ce6104bc565b005b3480156101dc57600080fd5b506101e561052f565b6040516101f29190610a07565b60405180910390f35b34801561020757600080fd5b50610210610535565b6040516102209493929190610aea565b60405180910390f35b34801561023557600080fd5b5061023e610561565b60405161024b9190610a07565b60405180910390f35b34801561026057600080fd5b5061027b60048036038101906102769190610b2f565b610567565b6040516102889190610b6b565b60405180910390f35b34801561029d57600080fd5b506102a661059a565b6040516102b39190610a07565b60405180910390f35b3480156102c857600080fd5b506102d16105a0565b6040516102de9190610a07565b60405180910390f35b3480156102f357600080fd5b506102fc6105cd565b6040516103099190610b6b565b60405180910390f35b34801561031e57600080fd5b506103276105f1565b6040516103349190610a07565b60405180910390f35b34801561034957600080fd5b506103526105f7565b60405161035f9190610a07565b60405180910390f35b60045481565b603c60045461037d9190610bb5565b421061038c5761038b610606565b5b60006103966106c3565b90506103a06106f5565b6103a861073b565b80600160008282546103ba9190610bb5565b925050819055507f2a91682c71693090d6aa753e3d3cb5942fe6b7200f45f781dd0ab8fc826f81e081426040516103f2929190610be9565b60405180910390a150565b60025481565b806008600084600381111561041b5761041a610c12565b5b600381111561042d5761042c610c12565b5b815260200190815260200160002060006101000a81548173ffffffffffffffffffffffffffffffffffffffff021916908373ffffffffffffffffffffffffffffffffffffffff1602179055507f7f0c44cc6a585c2e3dc25266d9a1ea74ce0ad4a73dd184528f54fa2a014b8a4282826040516104aa929190610c89565b60405180910390a15050565b60055481565b60008054906101000a900473ffffffffffffffffffffffffffffffffffffffff1673ffffffffffffffffffffffffffffffffffffffff166108fc6001549081150290604051600060405180830381858888f19350505050158015610524573d6000803e3d6000fd5b506000600181905550565b60075481565b600080600080600254600354600754603c6004546105539190610bb5565b935093509350935090919293565b60035481565b60086020528060005260406000206000915054906101000a900473ffffffffffffffffffffffffffffffffffffffff1681565b60065481565b60006127106003546a52b7d2dcc80cd2e40000006105be9190610cb2565b6105c89190610d23565b905090565b60008054906101000a900473ffffffffffffffffffffffffffffffffffffffff1681565b60015481565b6a52b7d2dcc80cd2e400000081565b6002600081548092919061061990610d54565b9190505550610626610983565b61062e6109c9565b6106366109ec565b6000600a6002546106479190610d9c565b036106675760016003600082825461065f9190610bb5565b925050819055505b6064600354111561067b5760646003819055505b426004819055507fc261ffc6367c8dd96d12b0a80af0ff6b0c303fd212a92b8c3859c68bb484c5bf600254600354426040516106b993929190610dcd565b60405180910390a1565b6000806127106003546a52b7d2dcc80cd2e40000006106e29190610cb2565b6106ec9190610d23565b90508091505090565b7f308d7d875e72491889f00c362b0a2f7e5f8d9b0448dca3195fdde0d0b8bcce90336a52b7d2dcc80cd2e4000000604051610731929190610e04565b60405180910390a1565b7f7f0c44cc6a585c2e3dc25266d9a1ea74ce0ad4a73dd184528f54fa2a014b8a4260006008600080600381111561077557610774610c12565b5b600381111561078757610786610c12565b5b815260200190815260200160002060009054906101000a900473ffffffffffffffffffffffffffffffffffffffff166040516107c4929190610c89565b60405180910390a17f7f0c44cc6a585c2e3dc25266d9a1ea74ce0ad4a73dd184528f54fa2a014b8a426001600860006001600381111561080757610806610c12565b5b600381111561081957610818610c12565b5b815260200190815260200160002060009054906101000a900473ffffffffffffffffffffffffffffffffffffffff16604051610856929190610c89565b60405180910390a17f7f0c44cc6a585c2e3dc25266d9a1ea74ce0ad4a73dd184528f54fa2a014b8a426002600860006002600381111561089957610898610c12565b5b60038111156108ab576108aa610c12565b5b815260200190815260200160002060009054906101000a900473ffffffffffffffffffffffffffffffffffffffff166040516108e8929190610c89565b60405180910390a17f7f0c44cc6a585c2e3dc25266d9a1ea74ce0ad4a73dd184528f54fa2a014b8a4260036008600060038081111561092a57610929610c12565b5b600381111561093c5761093b610c12565b5b815260200190815260200160002060009054906101000a900473ffffffffffffffffffffffffffffffffffffffff16604051610979929190610c89565b60405180910390a1565b601e6046426109929190610d9c565b61099c9190610bb5565b600681905550603c60065411156109c75760058060008282546109bf9190610bb5565b925050819055505b565b60146002546109d89190610d9c565b60506109e49190610bb5565b600781905550565b565b6000819050919050565b610a01816109ee565b82525050565b6000602082019050610a1c60008301846109f8565b92915050565b600080fd5b60048110610a3457600080fd5b50565b600081359050610a4681610a27565b92915050565b600073ffffffffffffffffffffffffffffffffffffffff82169050919050565b6000610a7782610a4c565b9050919050565b610a8781610a6c565b8114610a9257600080fd5b50565b600081359050610aa481610a7e565b92915050565b60008060408385031215610ac157610ac0610a22565b5b6000610acf85828601610a37565b9250506020610ae085828601610a95565b9150509250929050565b6000608082019050610aff60008301876109f8565b610b0c60208301866109f8565b610b1960408301856109f8565b610b2660608301846109f8565b95945050505050565b600060208284031215610b4557610b44610a22565b5b6000610b5384828501610a37565b91505092915050565b610b6581610a6c565b82525050565b6000602082019050610b806000830184610b5c565b92915050565b7f4e487b7100000000000000000000000000000000000000000000000000000000600052601160045260246000fd5b6000610bc0826109ee565b9150610bcb836109ee565b9250828201905080821115610be357610be2610b86565b5b92915050565b6000604082019050610bfe60008301856109f8565b610c0b60208301846109f8565b9392505050565b7f4e487b7100000000000000000000000000000000000000000000000000000000600052602160045260246000fd5b60048110610c5257610c51610c12565b5b50565b6000819050610c6382610c41565b919050565b6000610c7382610c55565b9050919050565b610c8381610c68565b82525050565b6000604082019050610c9e6000830185610c7a565b610cab6020830184610b5c565b9392505050565b6000610cbd826109ee565b9150610cc8836109ee565b9250828202610cd6816109ee565b91508282048414831517610ced57610cec610b86565b5b5092915050565b7f4e487b7100000000000000000000000000000000000000000000000000000000600052601260045260246000fd5b6000610d2e826109ee565b9150610d39836109ee565b925082610d4957610d48610cf4565b5b828204905092915050565b6000610d5f826109ee565b91507fffffffffffffffffffffffffffffffffffffffffffffffffffffffffffffffff8203610d9157610d90610b86565b5b600182019050919050565b6000610da7826109ee565b9150610db2836109ee565b925082610dc257610dc1610cf4565b5b828206905092915050565b6000606082019050610de260008301866109f8565b610def60208301856109f8565b610dfc60408301846109f8565b949350505050565b6000604082019050610e196000830185610b5c565b610e2660208301846109f8565b939250505056fea26469706673582212206cec0191813fb73a62c0a9a1b3c18ebe492441c4d2746c37933cbb62d172426a64736f6c63430008130033","opcodes":"PUSH1 0x80 PUSH1 0x40 MSTORE PUSH1 0x19 PUSH1 0x3 SSTORE PUSH1 0x64 PUSH1 0x5 SSTORE CALLVALUE DUP1 ISZERO PUSH2 0x1A JUMPI PUSH1 0x0 DUP1 REVERT JUMPDEST POP CALLER PUSH1 0x0 DUP1 PUSH2 0x100 EXP DUP2 SLOAD DUP2 PUSH20 0xFFFFFFFFFFFFFFFFFFFFFFFFFFFFFFFFFFFFFFFF MUL NOT AND SWAP1 DUP4 PUSH20 0xFFFFFFFFFFFFFFFFFFFFFFFFFFFFFFFFFFFFFFFF AND MUL OR SWAP1 SSTORE POP TIMESTAMP PUSH1 0x4 DUP2 SWAP1 SSTORE POP PUSH2 0xE63 DUP1 PUSH2 0x71 PUSH1 0x0 CODECOPY PUSH1 0x0 RETURN INVALID PUSH1 0x80 PUSH1 0x40 MSTORE PUSH1 0x4 CALLDATASIZE LT PUSH2 0xEC JUMPI PUSH1 0x0 CALLDATALOAD PUSH1 0xE0 SHR DUP1 PUSH4 0x3F8190DC GT PUSH2 0x8A JUMPI DUP1 PUSH4 0x810A862C GT PUSH2 0x59 JUMPI DUP1 PUSH4 0x810A862C EQ PUSH2 0x2BC JUMPI DUP1 PUSH4 0x8DA5CB5B EQ PUSH2 0x2E7 JUMPI DUP1 PUSH4 0xBD998CB3 EQ PUSH2 0x312 JUMPI DUP1 PUSH4 0xCE8B3250 EQ PUSH2 0x33D JUMPI PUSH2 0xF3 JUMP JUMPDEST DUP1 PUSH4 0x3F8190DC EQ PUSH2 0x1FB JUMPI DUP1 PUSH4 0x4C3F89BD EQ PUSH2 0x229 JUMPI DUP1 PUSH4 0x703A1296 EQ PUSH2 0x254 JUMPI DUP1 PUSH4 0x759D4793 EQ PUSH2 0x291 JUMPI PUSH2 0xF3 JUMP JUMPDEST DUP1 PUSH4 0x2DA13625 GT PUSH2 0xC6 JUMPI DUP1 PUSH4 0x2DA13625 EQ PUSH2 0x165 JUMPI DUP1 PUSH4 0x3766BF19 EQ PUSH2 0x18E JUMPI DUP1 PUSH4 0x39913E09 EQ PUSH2 0x1B9 JUMPI DUP1 PUSH4 0x3C635A15 EQ PUSH2 0x1D0 JUMPI PUSH2 0xF3 JUMP JUMPDEST DUP1 PUSH4 0x11E7B08 EQ PUSH2 0xF8 JUMPI DUP1 PUSH4 0x6E2E6EA EQ PUSH2 0x123 JUMPI DUP1 PUSH4 0x1D0AFFE6 EQ PUSH2 0x13A JUMPI PUSH2 0xF3 JUMP JUMPDEST CALLDATASIZE PUSH2 0xF3 JUMPI STOP JUMPDEST PUSH1 0x0 DUP1 REVERT JUMPDEST CALLVALUE DUP1 ISZERO PUSH2 0x104 JUMPI PUSH1 0x0 DUP1 REVERT JUMPDEST POP PUSH2 0x10D PUSH2 0x368 JUMP JUMPDEST PUSH1 0x40 MLOAD PUSH2 0x11A SWAP2 SWAP1 PUSH2 0xA07 JUMP JUMPDEST PUSH1 0x40 MLOAD DUP1 SWAP2 SUB SWAP1 RETURN JUMPDEST CALLVALUE DUP1 ISZERO PUSH2 0x12F JUMPI PUSH1 0x0 DUP1 REVERT JUMPDEST POP PUSH2 0x138 PUSH2 0x36E JUMP JUMPDEST STOP JUMPDEST CALLVALUE DUP1 ISZERO PUSH2 0x146 JUMPI PUSH1 0x0 DUP1 REVERT JUMPDEST POP PUSH2 0x14F PUSH2 0x3FD JUMP JUMPDEST PUSH1 0x40 MLOAD PUSH2 0x15C SWAP2 SWAP1 PUSH2 0xA07 JUMP JUMPDEST PUSH1 0x40 MLOAD DUP1 SWAP2 SUB SWAP1 RETURN JUMPDEST CALLVALUE DUP1 ISZERO PUSH2 0x171 JUMPI PUSH1 0x0 DUP1 REVERT JUMPDEST POP PUSH2 0x18C PUSH1 0x4 DUP1 CALLDATASIZE SUB DUP2 ADD SWAP1 PUSH2 0x187 SWAP2 SWAP1 PUSH2 0xAAA JUMP JUMPDEST PUSH2 0x403 JUMP JUMPDEST STOP JUMPDEST CALLVALUE DUP1 ISZERO PUSH2 0x19A JUMPI PUSH1 0x0 DUP1 REVERT JUMPDEST POP PUSH2 0x1A3 PUSH2 0x4B6 JUMP JUMPDEST PUSH1 0x40 MLOAD PUSH2 0x1B0 SWAP2 SWAP1 PUSH2 0xA07 JUMP JUMPDEST PUSH1 0x40 MLOAD DUP1 SWAP2 SUB SWAP1 RETURN JUMPDEST CALLVALUE DUP1 ISZERO PUSH2 0x1C5 JUMPI PUSH1 0x0 DUP1 REVERT JUMPDEST POP PUSH2 0x1CE PUSH2 0x4BC JUMP JUMPDEST STOP JUMPDEST CALLVALUE DUP1 ISZERO PUSH2 0x1DC JUMPI PUSH1 0x0 DUP1 REVERT JUMPDEST POP PUSH2 0x1E5 PUSH2 0x52F JUMP JUMPDEST PUSH1 0x40 MLOAD PUSH2 0x1F2 SWAP2 SWAP1 PUSH2 0xA07 JUMP JUMPDEST PUSH1 0x40 MLOAD DUP1 SWAP2 SUB SWAP1 RETURN JUMPDEST CALLVALUE DUP1 ISZERO PUSH2 0x207 JUMPI PUSH1 0x0 DUP1 REVERT JUMPDEST POP PUSH2 0x210 PUSH2 0x535 JUMP JUMPDEST PUSH1 0x40 MLOAD PUSH2 0x220 SWAP5 SWAP4 SWAP3 SWAP2 SWAP1 PUSH2 0xAEA JUMP JUMPDEST PUSH1 0x40 MLOAD DUP1 SWAP2 SUB SWAP1 RETURN JUMPDEST CALLVALUE DUP1 ISZERO PUSH2 0x235 JUMPI PUSH1 0x0 DUP1 REVERT JUMPDEST POP PUSH2 0x23E PUSH2 0x561 JUMP JUMPDEST PUSH1 0x40 MLOAD PUSH2 0x24B SWAP2 SWAP1 PUSH2 0xA07 JUMP JUMPDEST PUSH1 0x40 MLOAD DUP1 SWAP2 SUB SWAP1 RETURN JUMPDEST CALLVALUE DUP1 ISZERO PUSH2 0x260 JUMPI PUSH1 0x0 DUP1 REVERT JUMPDEST POP PUSH2 0x27B PUSH1 0x4 DUP1 CALLDATASIZE SUB DUP2 ADD SWAP1 PUSH2 0x276 SWAP2 SWAP1 PUSH2 0xB2F JUMP JUMPDEST PUSH2 0x567 JUMP JUMPDEST PUSH1 0x40 MLOAD PUSH2 0x288 SWAP2 SWAP1 PUSH2 0xB6B JUMP JUMPDEST PUSH1 0x40 MLOAD DUP1 SWAP2 SUB SWAP1 RETURN JUMPDEST CALLVALUE DUP1 ISZERO PUSH2 0x29D JUMPI PUSH1 0x0 DUP1 REVERT JUMPDEST POP PUSH2 0x2A6 PUSH2 0x59A JUMP JUMPDEST PUSH1 0x40 MLOAD PUSH2 0x2B3 SWAP2 SWAP1 PUSH2 0xA07 JUMP JUMPDEST PUSH1 0x40 MLOAD DUP1 SWAP2 SUB SWAP1 RETURN JUMPDEST CALLVALUE DUP1 ISZERO PUSH2 0x2C8 JUMPI PUSH1 0x0 DUP1 REVERT JUMPDEST POP PUSH2 0x2D1 PUSH2 0x5A0 JUMP JUMPDEST PUSH1 0x40 MLOAD PUSH2 0x2DE SWAP2 SWAP1 PUSH2 0xA07 JUMP JUMPDEST PUSH1 0x40 MLOAD DUP1 SWAP2 SUB SWAP1 RETURN JUMPDEST CALLVALUE DUP1 ISZERO PUSH2 0x2F3 JUMPI PUSH1 0x0 DUP1 REVERT JUMPDEST POP PUSH2 0x2FC PUSH2 0x5CD JUMP JUMPDEST PUSH1 0x40 MLOAD PUSH2 0x309 SWAP2 SWAP1 PUSH2 0xB6B JUMP JUMPDEST PUSH1 0x40 MLOAD DUP1 SWAP2 SUB SWAP1 RETURN JUMPDEST CALLVALUE DUP1 ISZERO PUSH2 0x31E JUMPI PUSH1 0x0 DUP1 REVERT JUMPDEST POP PUSH2 0x327 PUSH2 0x5F1 JUMP JUMPDEST PUSH1 0x40 MLOAD PUSH2 0x334 SWAP2 SWAP1 PUSH2 0xA07 JUMP JUMPDEST PUSH1 0x40 MLOAD DUP1 SWAP2 SUB SWAP1 RETURN JUMPDEST CALLVALUE DUP1 ISZERO PUSH2 0x349 JUMPI PUSH1 0x0 DUP1 REVERT JUMPDEST POP PUSH2 0x352 PUSH2 0x5F7 JUMP JUMPDEST PUSH1 0x40 MLOAD PUSH2 0x35F SWAP2 SWAP1 PUSH2 0xA07 JUMP JUMPDEST PUSH1 0x40 MLOAD DUP1 SWAP2 SUB SWAP1 RETURN JUMPDEST PUSH1 0x4 SLOAD DUP2 JUMP JUMPDEST PUSH1 0x3C PUSH1 0x4 SLOAD PUSH2 0x37D SWAP2 SWAP1 PUSH2 0xBB5 JUMP JUMPDEST TIMESTAMP LT PUSH2 0x38C JUMPI PUSH2 0x38B PUSH2 0x606 JUMP JUMPDEST JUMPDEST PUSH1 0x0 PUSH2 0x396 PUSH2 0x6C3 JUMP JUMPDEST SWAP1 POP PUSH2 0x3A0 PUSH2 0x6F5 JUMP JUMPDEST PUSH2 0x3A8 PUSH2 0x73B JUMP JUMPDEST DUP1 PUSH1 0x1 PUSH1 0x0 DUP3 DUP3 SLOAD PUSH2 0x3BA SWAP2 SWAP1 PUSH2 0xBB5 JUMP JUMPDEST SWAP3 POP POP DUP2 SWAP1 SSTORE POP PUSH32 0x2A91682C71693090D6AA753E3D3CB5942FE6B7200F45F781DD0AB8FC826F81E0 DUP2 TIMESTAMP PUSH1 0x40 MLOAD PUSH2 0x3F2 SWAP3 SWAP2 SWAP1 PUSH2 0xBE9 JUMP JUMPDEST PUSH1 0x40 MLOAD DUP1 SWAP2 SUB SWAP1 LOG1 POP JUMP JUMPDEST PUSH1 0x2 SLOAD DUP2 JUMP JUMPDEST DUP1 PUSH1 0x8 PUSH1 0x0 DUP5 PUSH1 0x3 DUP2 GT ISZERO PUSH2 0x41B JUMPI PUSH2 0x41A PUSH2 0xC12 JUMP JUMPDEST JUMPDEST PUSH1 0x3 DUP2 GT ISZERO PUSH2 0x42D JUMPI PUSH2 0x42C PUSH2 0xC12 JUMP JUMPDEST JUMPDEST DUP2 MSTORE PUSH1 0x20 ADD SWAP1 DUP2 MSTORE PUSH1 0x20 ADD PUSH1 0x0 KECCAK256 PUSH1 0x0 PUSH2 0x100 EXP DUP2 SLOAD DUP2 PUSH20 0xFFFFFFFFFFFFFFFFFFFFFFFFFFFFFFFFFFFFFFFF MUL NOT AND SWAP1 DUP4 PUSH20 0xFFFFFFFFFFFFFFFFFFFFFFFFFFFFFFFFFFFFFFFF AND MUL OR SWAP1 SSTORE POP PUSH32 0x7F0C44CC6A585C2E3DC25266D9A1EA74CE0AD4A73DD184528F54FA2A014B8A42 DUP3 DUP3 PUSH1 0x40 MLOAD PUSH2 0x4AA SWAP3 SWAP2 SWAP1 PUSH2 0xC89 JUMP JUMPDEST PUSH1 0x40 MLOAD DUP1 SWAP2 SUB SWAP1 LOG1 POP POP JUMP JUMPDEST PUSH1 0x5 SLOAD DUP2 JUMP JUMPDEST PUSH1 0x0 DUP1 SLOAD SWAP1 PUSH2 0x100 EXP SWAP1 DIV PUSH20 0xFFFFFFFFFFFFFFFFFFFFFFFFFFFFFFFFFFFFFFFF AND PUSH20 0xFFFFFFFFFFFFFFFFFFFFFFFFFFFFFFFFFFFFFFFF AND PUSH2 0x8FC PUSH1 0x1 SLOAD SWAP1 DUP2 ISZERO MUL SWAP1 PUSH1 0x40 MLOAD PUSH1 0x0 PUSH1 0x40 MLOAD DUP1 DUP4 SUB DUP2 DUP6 DUP9 DUP9 CALL SWAP4 POP POP POP POP ISZERO DUP1 ISZERO PUSH2 0x524 JUMPI RETURNDATASIZE PUSH1 0x0 DUP1 RETURNDATACOPY RETURNDATASIZE PUSH1 0x0 REVERT JUMPDEST POP PUSH1 0x0 PUSH1 0x1 DUP2 SWAP1 SSTORE POP JUMP JUMPDEST PUSH1 0x7 SLOAD DUP2 JUMP JUMPDEST PUSH1 0x0 DUP1 PUSH1 0x0 DUP1 PUSH1 0x2 SLOAD PUSH1 0x3 SLOAD PUSH1 0x7 SLOAD PUSH1 0x3C PUSH1 0x4 SLOAD PUSH2 0x553 SWAP2 SWAP1 PUSH2 0xBB5 JUMP JUMPDEST SWAP4 POP SWAP4 POP SWAP4 POP SWAP4 POP SWAP1 SWAP2 SWAP3 SWAP4 JUMP JUMPDEST PUSH1 0x3 SLOAD DUP2 JUMP JUMPDEST PUSH1 0x8 PUSH1 0x20 MSTORE DUP1 PUSH1 0x0 MSTORE PUSH1 0x40 PUSH1 0x0 KECCAK256 PUSH1 0x0 SWAP2 POP SLOAD SWAP1 PUSH2 0x100 EXP SWAP1 DIV PUSH20 0xFFFFFFFFFFFFFFFFFFFFFFFFFFFFFFFFFFFFFFFF AND DUP2 JUMP JUMPDEST PUSH1 0x6 SLOAD DUP2 JUMP JUMPDEST PUSH1 0x0 PUSH2 0x2710 PUSH1 0x3 SLOAD PUSH11 0x52B7D2DCC80CD2E4000000 PUSH2 0x5BE SWAP2 SWAP1 PUSH2 0xCB2 JUMP JUMPDEST PUSH2 0x5C8 SWAP2 SWAP1 PUSH2 0xD23 JUMP JUMPDEST SWAP1 POP SWAP1 JUMP JUMPDEST PUSH1 0x0 DUP1 SLOAD SWAP1 PUSH2 0x100 EXP SWAP1 DIV PUSH20 0xFFFFFFFFFFFFFFFFFFFFFFFFFFFFFFFFFFFFFFFF AND DUP2 JUMP JUMPDEST PUSH1 0x1 SLOAD DUP2 JUMP JUMPDEST PUSH11 0x52B7D2DCC80CD2E4000000 DUP2 JUMP JUMPDEST PUSH1 0x2 PUSH1 0x0 DUP2 SLOAD DUP1 SWAP3 SWAP2 SWAP1 PUSH2 0x619 SWAP1 PUSH2 0xD54 JUMP JUMPDEST SWAP2 SWAP1 POP SSTORE POP PUSH2 0x626 PUSH2 0x983 JUMP JUMPDEST PUSH2 0x62E PUSH2 0x9C9 JUMP JUMPDEST PUSH2 0x636 PUSH2 0x9EC JUMP JUMPDEST PUSH1 0x0 PUSH1 0xA PUSH1 0x2 SLOAD PUSH2 0x647 SWAP2 SWAP1 PUSH2 0xD9C JUMP JUMPDEST SUB PUSH2 0x667 JUMPI PUSH1 0x1 PUSH1 0x3 PUSH1 0x0 DUP3 DUP3 SLOAD PUSH2 0x65F SWAP2 SWAP1 PUSH2 0xBB5 JUMP JUMPDEST SWAP3 POP POP DUP2 SWAP1 SSTORE POP JUMPDEST PUSH1 0x64 PUSH1 0x3 SLOAD GT ISZERO PUSH2 0x67B JUMPI PUSH1 0x64 PUSH1 0x3 DUP2 SWAP1 SSTORE POP JUMPDEST TIMESTAMP PUSH1 0x4 DUP2 SWAP1 SSTORE POP PUSH32 0xC261FFC6367C8DD96D12B0A80AF0FF6B0C303FD212A92B8C3859C68BB484C5BF PUSH1 0x2 SLOAD PUSH1 0x3 SLOAD TIMESTAMP PUSH1 0x40 MLOAD PUSH2 0x6B9 SWAP4 SWAP3 SWAP2 SWAP1 PUSH2 0xDCD JUMP JUMPDEST PUSH1 0x40 MLOAD DUP1 SWAP2 SUB SWAP1 LOG1 JUMP JUMPDEST PUSH1 0x0 DUP1 PUSH2 0x2710 PUSH1 0x3 SLOAD PUSH11 0x52B7D2DCC80CD2E4000000 PUSH2 0x6E2 SWAP2 SWAP1 PUSH2 0xCB2 JUMP JUMPDEST PUSH2 0x6EC SWAP2 SWAP1 PUSH2 0xD23 JUMP JUMPDEST SWAP1 POP DUP1 SWAP2 POP POP SWAP1 JUMP JUMPDEST PUSH32 0x308D7D875E72491889F00C362B0A2F7E5F8D9B0448DCA3195FDDE0D0B8BCCE90 CALLER PUSH11 0x52B7D2DCC80CD2E4000000 PUSH1 0x40 MLOAD PUSH2 0x731 SWAP3 SWAP2 SWAP1 PUSH2 0xE04 JUMP JUMPDEST PUSH1 0x40 MLOAD DUP1 SWAP2 SUB SWAP1 LOG1 JUMP JUMPDEST PUSH32 0x7F0C44CC6A585C2E3DC25266D9A1EA74CE0AD4A73DD184528F54FA2A014B8A42 PUSH1 0x0 PUSH1 0x8 PUSH1 0x0 DUP1 PUSH1 0x3 DUP2 GT ISZERO PUSH2 0x775 JUMPI PUSH2 0x774 PUSH2 0xC12 JUMP JUMPDEST JUMPDEST PUSH1 0x3 DUP2 GT ISZERO PUSH2 0x787 JUMPI PUSH2 0x786 PUSH2 0xC12 JUMP JUMPDEST JUMPDEST DUP2 MSTORE PUSH1 0x20 ADD SWAP1 DUP2 MSTORE PUSH1 0x20 ADD PUSH1 0x0 KECCAK256 PUSH1 0x0 SWAP1 SLOAD SWAP1 PUSH2 0x100 EXP SWAP1 DIV PUSH20 0xFFFFFFFFFFFFFFFFFFFFFFFFFFFFFFFFFFFFFFFF AND PUSH1 0x40 MLOAD PUSH2 0x7C4 SWAP3 SWAP2 SWAP1 PUSH2 0xC89 JUMP JUMPDEST PUSH1 0x40 MLOAD DUP1 SWAP2 SUB SWAP1 LOG1 PUSH32 0x7F0C44CC6A585C2E3DC25266D9A1EA74CE0AD4A73DD184528F54FA2A014B8A42 PUSH1 0x1 PUSH1 0x8 PUSH1 0x0 PUSH1 0x1 PUSH1 0x3 DUP2 GT ISZERO PUSH2 0x807 JUMPI PUSH2 0x806 PUSH2 0xC12 JUMP JUMPDEST JUMPDEST PUSH1 0x3 DUP2 GT ISZERO PUSH2 0x819 JUMPI PUSH2 0x818 PUSH2 0xC12 JUMP JUMPDEST JUMPDEST DUP2 MSTORE PUSH1 0x20 ADD SWAP1 DUP2 MSTORE PUSH1 0x20 ADD PUSH1 0x0 KECCAK256 PUSH1 0x0 SWAP1 SLOAD SWAP1 PUSH2 0x100 EXP SWAP1 DIV PUSH20 0xFFFFFFFFFFFFFFFFFFFFFFFFFFFFFFFFFFFFFFFF AND PUSH1 0x40 MLOAD PUSH2 0x856 SWAP3 SWAP2 SWAP1 PUSH2 0xC89 JUMP JUMPDEST PUSH1 0x40 MLOAD DUP1 SWAP2 SUB SWAP1 LOG1 PUSH32 0x7F0C44CC6A585C2E3DC25266D9A1EA74CE0AD4A73DD184528F54FA2A014B8A42 PUSH1 0x2 PUSH1 0x8 PUSH1 0x0 PUSH1 0x2 PUSH1 0x3 DUP2 GT ISZERO PUSH2 0x899 JUMPI PUSH2 0x898 PUSH2 0xC12 JUMP JUMPDEST JUMPDEST PUSH1 0x3 DUP2 GT ISZERO PUSH2 0x8AB JUMPI PUSH2 0x8AA PUSH2 0xC12 JUMP JUMPDEST JUMPDEST DUP2 MSTORE PUSH1 0x20 ADD SWAP1 DUP2 MSTORE PUSH1 0x20 ADD PUSH1 0x0 KECCAK256 PUSH1 0x0 SWAP1 SLOAD SWAP1 PUSH2 0x100 EXP SWAP1 DIV PUSH20 0xFFFFFFFFFFFFFFFFFFFFFFFFFFFFFFFFFFFFFFFF AND PUSH1 0x40 MLOAD PUSH2 0x8E8 SWAP3 SWAP2 SWAP1 PUSH2 0xC89 JUMP JUMPDEST PUSH1 0x40 MLOAD DUP1 SWAP2 SUB SWAP1 LOG1 PUSH32 0x7F0C44CC6A585C2E3DC25266D9A1EA74CE0AD4A73DD184528F54FA2A014B8A42 PUSH1 0x3 PUSH1 0x8 PUSH1 0x0 PUSH1 0x3 DUP1 DUP2 GT ISZERO PUSH2 0x92A JUMPI PUSH2 0x929 PUSH2 0xC12 JUMP JUMPDEST JUMPDEST PUSH1 0x3 DUP2 GT ISZERO PUSH2 0x93C JUMPI PUSH2 0x93B PUSH2 0xC12 JUMP JUMPDEST JUMPDEST DUP2 MSTORE PUSH1 0x20 ADD SWAP1 DUP2 MSTORE PUSH1 0x20 ADD PUSH1 0x0 KECCAK256 PUSH1 0x0 SWAP1 SLOAD SWAP1 PUSH2 0x100 EXP SWAP1 DIV PUSH20 0xFFFFFFFFFFFFFFFFFFFFFFFFFFFFFFFFFFFFFFFF AND PUSH1 0x40 MLOAD PUSH2 0x979 SWAP3 SWAP2 SWAP1 PUSH2 0xC89 JUMP JUMPDEST PUSH1 0x40 MLOAD DUP1 SWAP2 SUB SWAP1 LOG1 JUMP JUMPDEST PUSH1 0x1E PUSH1 0x46 TIMESTAMP PUSH2 0x992 SWAP2 SWAP1 PUSH2 0xD9C JUMP JUMPDEST PUSH2 0x99C SWAP2 SWAP1 PUSH2 0xBB5 JUMP JUMPDEST PUSH1 0x6 DUP2 SWAP1 SSTORE POP PUSH1 0x3C PUSH1 0x6 SLOAD GT ISZERO PUSH2 0x9C7 JUMPI PUSH1 0x5 DUP1 PUSH1 0x0 DUP3 DUP3 SLOAD PUSH2 0x9BF SWAP2 SWAP1 PUSH2 0xBB5 JUMP JUMPDEST SWAP3 POP POP DUP2 SWAP1 SSTORE POP JUMPDEST JUMP JUMPDEST PUSH1 0x14 PUSH1 0x2 SLOAD PUSH2 0x9D8 SWAP2 SWAP1 PUSH2 0xD9C JUMP JUMPDEST PUSH1 0x50 PUSH2 0x9E4 SWAP2 SWAP1 PUSH2 0xBB5 JUMP JUMPDEST PUSH1 0x7 DUP2 SWAP1 SSTORE POP JUMP JUMPDEST JUMP JUMPDEST PUSH1 0x0 DUP2 SWAP1 POP SWAP2 SWAP1 POP JUMP JUMPDEST PUSH2 0xA01 DUP2 PUSH2 0x9EE JUMP JUMPDEST DUP3 MSTORE POP POP JUMP JUMPDEST PUSH1 0x0 PUSH1 0x20 DUP3 ADD SWAP1 POP PUSH2 0xA1C PUSH1 0x0 DUP4 ADD DUP5 PUSH2 0x9F8 JUMP JUMPDEST SWAP3 SWAP2 POP POP JUMP JUMPDEST PUSH1 0x0 DUP1 REVERT JUMPDEST PUSH1 0x4 DUP2 LT PUSH2 0xA34 JUMPI PUSH1 0x0 DUP1 REVERT JUMPDEST POP JUMP JUMPDEST PUSH1 0x0 DUP2 CALLDATALOAD SWAP1 POP PUSH2 0xA46 DUP2 PUSH2 0xA27 JUMP JUMPDEST SWAP3 SWAP2 POP POP JUMP JUMPDEST PUSH1 0x0 PUSH20 0xFFFFFFFFFFFFFFFFFFFFFFFFFFFFFFFFFFFFFFFF DUP3 AND SWAP1 POP SWAP2 SWAP1 POP JUMP JUMPDEST PUSH1 0x0 PUSH2 0xA77 DUP3 PUSH2 0xA4C JUMP JUMPDEST SWAP1 POP SWAP2 SWAP1 POP JUMP JUMPDEST PUSH2 0xA87 DUP2 PUSH2 0xA6C JUMP JUMPDEST DUP2 EQ PUSH2 0xA92 JUMPI PUSH1 0x0 DUP1 REVERT JUMPDEST POP JUMP JUMPDEST PUSH1 0x0 DUP2 CALLDATALOAD SWAP1 POP PUSH2 0xAA4 DUP2 PUSH2 0xA7E JUMP JUMPDEST SWAP3 SWAP2 POP POP JUMP JUMPDEST PUSH1 0x0 DUP1 PUSH1 0x40 DUP4 DUP6 SUB SLT ISZERO PUSH2 0xAC1 JUMPI PUSH2 0xAC0 PUSH2 0xA22 JUMP JUMPDEST JUMPDEST PUSH1 0x0 PUSH2 0xACF DUP6 DUP3 DUP7 ADD PUSH2 0xA37 JUMP JUMPDEST SWAP3 POP POP PUSH1 0x20 PUSH2 0xAE0 DUP6 DUP3 DUP7 ADD PUSH2 0xA95 JUMP JUMPDEST SWAP2 POP POP SWAP3 POP SWAP3 SWAP1 POP JUMP JUMPDEST PUSH1 0x0 PUSH1 0x80 DUP3 ADD SWAP1 POP PUSH2 0xAFF PUSH1 0x0 DUP4 ADD DUP8 PUSH2 0x9F8 JUMP JUMPDEST PUSH2 0xB0C PUSH1 0x20 DUP4 ADD DUP7 PUSH2 0x9F8 JUMP JUMPDEST PUSH2 0xB19 PUSH1 0x40 DUP4 ADD DUP6 PUSH2 0x9F8 JUMP JUMPDEST PUSH2 0xB26 PUSH1 0x60 DUP4 ADD DUP5 PUSH2 0x9F8 JUMP JUMPDEST SWAP6 SWAP5 POP POP POP POP POP JUMP JUMPDEST PUSH1 0x0 PUSH1 0x20 DUP3 DUP5 SUB SLT ISZERO PUSH2 0xB45 JUMPI PUSH2 0xB44 PUSH2 0xA22 JUMP JUMPDEST JUMPDEST PUSH1 0x0 PUSH2 0xB53 DUP5 DUP3 DUP6 ADD PUSH2 0xA37 JUMP JUMPDEST SWAP2 POP POP SWAP3 SWAP2 POP POP JUMP JUMPDEST PUSH2 0xB65 DUP2 PUSH2 0xA6C JUMP JUMPDEST DUP3 MSTORE POP POP JUMP JUMPDEST PUSH1 0x0 PUSH1 0x20 DUP3 ADD SWAP1 POP PUSH2 0xB80 PUSH1 0x0 DUP4 ADD DUP5 PUSH2 0xB5C JUMP JUMPDEST SWAP3 SWAP2 POP POP JUMP JUMPDEST PUSH32 0x4E487B7100000000000000000000000000000000000000000000000000000000 PUSH1 0x0 MSTORE PUSH1 0x11 PUSH1 0x4 MSTORE PUSH1 0x24 PUSH1 0x0 REVERT JUMPDEST PUSH1 0x0 PUSH2 0xBC0 DUP3 PUSH2 0x9EE JUMP JUMPDEST SWAP2 POP PUSH2 0xBCB DUP4 PUSH2 0x9EE JUMP JUMPDEST SWAP3 POP DUP3 DUP3 ADD SWAP1 POP DUP1 DUP3 GT ISZERO PUSH2 0xBE3 JUMPI PUSH2 0xBE2 PUSH2 0xB86 JUMP JUMPDEST JUMPDEST SWAP3 SWAP2 POP POP JUMP JUMPDEST PUSH1 0x0 PUSH1 0x40 DUP3 ADD SWAP1 POP PUSH2 0xBFE PUSH1 0x0 DUP4 ADD DUP6 PUSH2 0x9F8 JUMP JUMPDEST PUSH2 0xC0B PUSH1 0x20 DUP4 ADD DUP5 PUSH2 0x9F8 JUMP JUMPDEST SWAP4 SWAP3 POP POP POP JUMP JUMPDEST PUSH32 0x4E487B7100000000000000000000000000000000000000000000000000000000 PUSH1 0x0 MSTORE PUSH1 0x21 PUSH1 0x4 MSTORE PUSH1 0x24 PUSH1 0x0 REVERT JUMPDEST PUSH1 0x4 DUP2 LT PUSH2 0xC52 JUMPI PUSH2 0xC51 PUSH2 0xC12 JUMP JUMPDEST JUMPDEST POP JUMP JUMPDEST PUSH1 0x0 DUP2 SWAP1 POP PUSH2 0xC63 DUP3 PUSH2 0xC41 JUMP JUMPDEST SWAP2 SWAP1 POP JUMP JUMPDEST PUSH1 0x0 PUSH2 0xC73 DUP3 PUSH2 0xC55 JUMP JUMPDEST SWAP1 POP SWAP2 SWAP1 POP JUMP JUMPDEST PUSH2 0xC83 DUP2 PUSH2 0xC68 JUMP JUMPDEST DUP3 MSTORE POP POP JUMP JUMPDEST PUSH1 0x0 PUSH1 0x40 DUP3 ADD SWAP1 POP PUSH2 0xC9E PUSH1 0x0 DUP4 ADD DUP6 PUSH2 0xC7A JUMP JUMPDEST PUSH2 0xCAB PUSH1 0x20 DUP4 ADD DUP5 PUSH2 0xB5C JUMP JUMPDEST SWAP4 SWAP3 POP POP POP JUMP JUMPDEST PUSH1 0x0 PUSH2 0xCBD DUP3 PUSH2 0x9EE JUMP JUMPDEST SWAP2 POP PUSH2 0xCC8 DUP4 PUSH2 0x9EE JUMP JUMPDEST SWAP3 POP DUP3 DUP3 MUL PUSH2 0xCD6 DUP2 PUSH2 0x9EE JUMP JUMPDEST SWAP2 POP DUP3 DUP3 DIV DUP5 EQ DUP4 ISZERO OR PUSH2 0xCED JUMPI PUSH2 0xCEC PUSH2 0xB86 JUMP JUMPDEST JUMPDEST POP SWAP3 SWAP2 POP POP JUMP JUMPDEST PUSH32 0x4E487B7100000000000000000000000000000000000000000000000000000000 PUSH1 0x0 MSTORE PUSH1 0x12 PUSH1 0x4 MSTORE PUSH1 0x24 PUSH1 0x0 REVERT JUMPDEST PUSH1 0x0 PUSH2 0xD2E DUP3 PUSH2 0x9EE JUMP JUMPDEST SWAP2 POP PUSH2 0xD39 DUP4 PUSH2 0x9EE JUMP JUMPDEST SWAP3 POP DUP3 PUSH2 0xD49 JUMPI PUSH2 0xD48 PUSH2 0xCF4 JUMP JUMPDEST JUMPDEST DUP3 DUP3 DIV SWAP1 POP SWAP3 SWAP2 POP POP JUMP JUMPDEST PUSH1 0x0 PUSH2 0xD5F DUP3 PUSH2 0x9EE JUMP JUMPDEST SWAP2 POP PUSH32 0xFFFFFFFFFFFFFFFFFFFFFFFFFFFFFFFFFFFFFFFFFFFFFFFFFFFFFFFFFFFFFFFF DUP3 SUB PUSH2 0xD91 JUMPI PUSH2 0xD90 PUSH2 0xB86 JUMP JUMPDEST JUMPDEST PUSH1 0x1 DUP3 ADD SWAP1 POP SWAP2 SWAP1 POP JUMP JUMPDEST PUSH1 0x0 PUSH2 0xDA7 DUP3 PUSH2 0x9EE JUMP JUMPDEST SWAP2 POP PUSH2 0xDB2 DUP4 PUSH2 0x9EE JUMP JUMPDEST SWAP3 POP DUP3 PUSH2 0xDC2 JUMPI PUSH2 0xDC1 PUSH2 0xCF4 JUMP JUMPDEST JUMPDEST DUP3 DUP3 MOD SWAP1 POP SWAP3 SWAP2 POP POP JUMP JUMPDEST PUSH1 0x0 PUSH1 0x60 DUP3 ADD SWAP1 POP PUSH2 0xDE2 PUSH1 0x0 DUP4 ADD DUP7 PUSH2 0x9F8 JUMP JUMPDEST PUSH2 0xDEF PUSH1 0x20 DUP4 ADD DUP6 PUSH2 0x9F8 JUMP JUMPDEST PUSH2 0xDFC PUSH1 0x40 DUP4 ADD DUP5 PUSH2 0x9F8 JUMP JUMPDEST SWAP5 SWAP4 POP POP POP POP JUMP JUMPDEST PUSH1 0x0 PUSH1 0x40 DUP3 ADD SWAP1 POP PUSH2 0xE19 PUSH1 0x0 DUP4 ADD DUP6 PUSH2 0xB5C JUMP JUMPDEST PUSH2 0xE26 PUSH1 0x20 DUP4 ADD DUP5 PUSH2 0x9F8 JUMP JUMPDEST SWAP4 SWAP3 POP POP POP JUMP INVALID LOG2 PUSH5 0x6970667358 0x22 SLT KECCAK256 PUSH13 0xEC0191813FB73A62C0A9A1B3C1 DUP15 0xBE 0x49 0x24 COINBASE 0xC4 0xD2 PUSH21 0x6C37933CBB62D172426A64736F6C63430008130033 "},"methodIdentifiers":{"MAX_FLASH_LOAN()":"ce8b3250","bots(uint8)":"703a1296","currentProfitRate()":"4c3f89bd","executeUnifiedArbitrage()":"06e2e6ea","executionEfficiency()":"3c635a15","getAIStatus()":"3f8190dc","getOptimizedProfit()":"810a862c","lastOptimization()":"011e7b08","learningRate()":"3766bf19","marketVolatility()":"759d4793","optimizationCount()":"1d0affe6","owner()":"8da5cb5b","setBotAddress(uint8,address)":"2da13625","totalProfits()":"bd998cb3","withdrawProfits()":"39913e09"}}}}}