{"contracts/SelfOptimizingAI.sol":{"SelfOptimizingAI":{"abi":[{"inputs":[],"stateMutability":"nonpayable","type":"constructor"},{"anonymous":false,"inputs":[{"indexed":false,"internalType":"uint256","name":"cycle","type":"uint256"},{"indexed":false,"internalType":"uint256","name":"newProfitRate","type":"uint256"},{"indexed":false,"internalType":"uint256","name":"timestamp","type":"uint256"}],"name":"AIOptimized","type":"event"},{"anonymous":false,"inputs":[{"indexed":false,"internalType":"uint256","name":"responseTime","type":"uint256"},{"indexed":false,"internalType":"uint256","name":"accuracy","type":"uint256"}],"name":"BotParametersCalibrated","type":"event"},{"anonymous":false,"inputs":[{"indexed":false,"internalType":"uint256","name":"volatility","type":"uint256"},{"indexed":false,"internalType":"uint256","name":"liquidity","type":"uint256"}],"name":"MarketConditionUpdated","type":"event"},{"inputs":[],"name":"continuousOptimization","outputs":[],"stateMutability":"nonpayable","type":"function"},{"inputs":[],"name":"currentProfitRate","outputs":[{"internalType":"uint256","name":"","type":"uint256"}],"stateMutability":"view","type":"function"},{"inputs":[],"name":"executionEfficiency","outputs":[{"internalType":"uint256","name":"","type":"uint256"}],"stateMutability":"view","type":"function"},{"inputs":[],"name":"getAIStatus","outputs":[{"internalType":"uint256","name":"cycles","type":"uint256"},{"internalType":"uint256","name":"profitRate","type":"uint256"},{"internalType":"uint256","name":"efficiency","type":"uint256"},{"internalType":"uint256","name":"nextOptimization","type":"uint256"}],"stateMutability":"view","type":"function"},{"inputs":[],"name":"getNextOptimizationTime","outputs":[{"internalType":"uint256","name":"","type":"uint256"}],"stateMutability":"view","type":"function"},{"inputs":[],"name":"getOptimizedProfitRate","outputs":[{"internalType":"uint256","name":"","type":"uint256"}],"stateMutability":"view","type":"function"},{"inputs":[],"name":"lastOptimization","outputs":[{"internalType":"uint256","name":"","type":"uint256"}],"stateMutability":"view","type":"function"},{"inputs":[],"name":"learningRate","outputs":[{"internalType":"uint256","name":"","type":"uint256"}],"stateMutability":"view","type":"function"},{"inputs":[],"name":"marketVolatilityFactor","outputs":[{"internalType":"uint256","name":"","type":"uint256"}],"stateMutability":"view","type":"function"},{"inputs":[],"name":"optimizationCount","outputs":[{"internalType":"uint256","name":"","type":"uint256"}],"stateMutability":"view","type":"function"},{"inputs":[],"name":"owner","outputs":[{"internalType":"address","name":"","type":"address"}],"stateMutability":"view","type":"function"},{"inputs":[],"name":"spreadOptimization","outputs":[{"internalType":"uint256","name":"","type":"uint256"}],"stateMutability":"view","type":"function"}],"evm":{"bytecode":{"linkReferences":{},"object":"608060405234801561001057600080fd5b50336000806101000a81548173ffffffffffffffffffffffffffffffffffffffff021916908373ffffffffffffffffffffffffffffffffffffffff1602179055504260018190555060196003819055506064600481905550610a44806100776000396000f3fe608060405234801561001057600080fd5b50600436106100b45760003560e01c80634c3f89bd116100715780634c3f89bd1461015c5780635415fec21461017a5780638da5cb5b14610198578063a2f81741146101b6578063a74331df146101d4578063d1d60beb146101f2576100b4565b8063011e7b08146100b95780631d0affe6146100d75780631eeb166b146100f55780633766bf19146100ff5780633c635a151461011d5780633f8190dc1461013b575b600080fd5b6100c1610210565b6040516100ce91906106c3565b60405180910390f35b6100df610216565b6040516100ec91906106c3565b60405180910390f35b6100fd61021c565b005b6101076102f5565b60405161011491906106c3565b60405180910390f35b6101256102fb565b60405161013291906106c3565b60405180910390f35b610143610301565b60405161015394939291906106de565b60405180910390f35b61016461032d565b60405161017191906106c3565b60405180910390f35b610182610333565b60405161018f91906106c3565b60405180910390f35b6101a061033d565b6040516101ad9190610764565b60405180910390f35b6101be610361565b6040516101cb91906106c3565b60405180910390f35b6101dc610377565b6040516101e991906106c3565b60405180910390f35b6101fa61037d565b60405161020791906106c3565b60405180910390f35b60015481565b60025481565b603c60015461022b91906107ae565b42101561026d576040517f08c379a00000000000000000000000000000000000000000000000000000000081526004016102649061083f565b60405180910390fd5b610275610383565b61027d6103ec565b61028561046a565b61028d6104cb565b610295610556565b600260008154809291906102a89061085f565b9190505550426001819055507fc261ffc6367c8dd96d12b0a80af0ff6b0c303fd212a92b8c3859c68bb484c5bf600254600354426040516102eb939291906108a7565b60405180910390a1565b60045481565b60065481565b600080600080600254600354600654603c60015461031f91906107ae565b935093509350935090919293565b60035481565b6000600354905090565b60008054906101000a900473ffffffffffffffffffffffffffffffffffffffff1681565b6000603c60015461037291906107ae565b905090565b60075481565b60055481565b600061038d61058c565b905060508111156103b7576005600460008282546103ab91906107ae565b925050819055506103e9565b60328110156103e857600a600454116103d157600a6103e1565b60026004546103e091906108de565b5b6004819055505b5b50565b6103f46105ae565b60058190555060006104046105ce565b90506046600554111561042c5760016003600082825461042491906107ae565b925050819055505b7fa42dfb8e08b74fa70f161371e34b0c52492d2b84ac2116481f2bdc213beb894f6005548260405161045f929190610912565b60405180910390a150565b60006104746105ee565b90506000610480610601565b90506000600a600254610493919061096a565b036104b3576001600360008282546104ab91906107ae565b925050819055505b606460035411156104c75760646003819055505b5050565b60006104d5610622565b905060006104e1610644565b905060006104ed610666565b905060038183856104fe91906107ae565b61050891906107ae565b610512919061099b565b6006819055507f70b963caf5ccc7bd5beed1d483fa0a15efc2d32af8b11d4969adef3bea07fd878284604051610549929190610912565b60405180910390a1505050565b61055e610688565b6007819055506050600754111561058a5760026003600082825461058291906107ae565b925050819055505b565b60006064600a60025461059f91906109cc565b6105a9919061096a565b905090565b6000601e6046426105bf919061096a565b6105c991906107ae565b905090565b600060146050426105df919061096a565b6105e991906107ae565b905090565b60006a52b7d2dcc80cd2e4000000905090565b600060646101f442610613919061096a565b61061d91906107ae565b905090565b6000600f600254610633919061096a565b605561063f91906107ae565b905090565b60006032600254610655919061096a565b60c861066191906108de565b905090565b6000600a600254610677919061096a565b605a61068391906107ae565b905090565b6000601e600254610699919061096a565b60466106a591906107ae565b905090565b6000819050919050565b6106bd816106aa565b82525050565b60006020820190506106d860008301846106b4565b92915050565b60006080820190506106f360008301876106b4565b61070060208301866106b4565b61070d60408301856106b4565b61071a60608301846106b4565b95945050505050565b600073ffffffffffffffffffffffffffffffffffffffff82169050919050565b600061074e82610723565b9050919050565b61075e81610743565b82525050565b60006020820190506107796000830184610755565b92915050565b7f4e487b7100000000000000000000000000000000000000000000000000000000600052601160045260246000fd5b60006107b9826106aa565b91506107c4836106aa565b92508282019050808211156107dc576107db61077f565b5b92915050565b600082825260208201905092915050565b7f4f7074696d697a6174696f6e20636f6f6c646f776e0000000000000000000000600082015250565b60006108296015836107e2565b9150610834826107f3565b602082019050919050565b600060208201905081810360008301526108588161081c565b9050919050565b600061086a826106aa565b91507fffffffffffffffffffffffffffffffffffffffffffffffffffffffffffffffff820361089c5761089b61077f565b5b600182019050919050565b60006060820190506108bc60008301866106b4565b6108c960208301856106b4565b6108d660408301846106b4565b949350505050565b60006108e9826106aa565b91506108f4836106aa565b925082820390508181111561090c5761090b61077f565b5b92915050565b600060408201905061092760008301856106b4565b61093460208301846106b4565b9392505050565b7f4e487b7100000000000000000000000000000000000000000000000000000000600052601260045260246000fd5b6000610975826106aa565b9150610980836106aa565b9250826109905761098f61093b565b5b828206905092915050565b60006109a6826106aa565b91506109b1836106aa565b9250826109c1576109c061093b565b5b828204905092915050565b60006109d7826106aa565b91506109e2836106aa565b92508282026109f0816106aa565b91508282048414831517610a0757610a0661077f565b5b509291505056fea2646970667358221220a664ec9d531ac3c035622be4cd74b51871b9955d2aef4f53d610d9f137e3924064736f6c63430008130033","opcodes":"PUSH1 0x80 PUSH1 0x40 MSTORE CALLVALUE DUP1 ISZERO PUSH2 0x10 JUMPI PUSH1 0x0 DUP1 REVERT JUMPDEST POP CALLER PUSH1 0x0 DUP1 PUSH2 0x100 EXP DUP2 SLOAD DUP2 PUSH20 0xFFFFFFFFFFFFFFFFFFFFFFFFFFFFFFFFFFFFFFFF MUL NOT AND SWAP1 DUP4 PUSH20 0xFFFFFFFFFFFFFFFFFFFFFFFFFFFFFFFFFFFFFFFF AND MUL OR SWAP1 SSTORE POP TIMESTAMP PUSH1 0x1 DUP2 SWAP1 SSTORE POP PUSH1 0x19 PUSH1 0x3 DUP2 SWAP1 SSTORE POP PUSH1 0x64 PUSH1 0x4 DUP2 SWAP1 SSTORE POP PUSH2 0xA44 DUP1 PUSH2 0x77 PUSH1 0x0 CODECOPY PUSH1 0x0 RETURN INVALID PUSH1 0x80 PUSH1 0x40 MSTORE CALLVALUE DUP1 ISZERO PUSH2 0x10 JUMPI PUSH1 0x0 DUP1 REVERT JUMPDEST POP PUSH1 0x4 CALLDATASIZE LT PUSH2 0xB4 JUMPI PUSH1 0x0 CALLDATALOAD PUSH1 0xE0 SHR DUP1 PUSH4 0x4C3F89BD GT PUSH2 0x71 JUMPI DUP1 PUSH4 0x4C3F89BD EQ PUSH2 0x15C JUMPI DUP1 PUSH4 0x5415FEC2 EQ PUSH2 0x17A JUMPI DUP1 PUSH4 0x8DA5CB5B EQ PUSH2 0x198 JUMPI DUP1 PUSH4 0xA2F81741 EQ PUSH2 0x1B6 JUMPI DUP1 PUSH4 0xA74331DF EQ PUSH2 0x1D4 JUMPI DUP1 PUSH4 0xD1D60BEB EQ PUSH2 0x1F2 JUMPI PUSH2 0xB4 JUMP JUMPDEST DUP1 PUSH4 0x11E7B08 EQ PUSH2 0xB9 JUMPI DUP1 PUSH4 0x1D0AFFE6 EQ PUSH2 0xD7 JUMPI DUP1 PUSH4 0x1EEB166B EQ PUSH2 0xF5 JUMPI DUP1 PUSH4 0x3766BF19 EQ PUSH2 0xFF JUMPI DUP1 PUSH4 0x3C635A15 EQ PUSH2 0x11D JUMPI DUP1 PUSH4 0x3F8190DC EQ PUSH2 0x13B JUMPI JUMPDEST PUSH1 0x0 DUP1 REVERT JUMPDEST PUSH2 0xC1 PUSH2 0x210 JUMP JUMPDEST PUSH1 0x40 MLOAD PUSH2 0xCE SWAP2 SWAP1 PUSH2 0x6C3 JUMP JUMPDEST PUSH1 0x40 MLOAD DUP1 SWAP2 SUB SWAP1 RETURN JUMPDEST PUSH2 0xDF PUSH2 0x216 JUMP JUMPDEST PUSH1 0x40 MLOAD PUSH2 0xEC SWAP2 SWAP1 PUSH2 0x6C3 JUMP JUMPDEST PUSH1 0x40 MLOAD DUP1 SWAP2 SUB SWAP1 RETURN JUMPDEST PUSH2 0xFD PUSH2 0x21C JUMP JUMPDEST STOP JUMPDEST PUSH2 0x107 PUSH2 0x2F5 JUMP JUMPDEST PUSH1 0x40 MLOAD PUSH2 0x114 SWAP2 SWAP1 PUSH2 0x6C3 JUMP JUMPDEST PUSH1 0x40 MLOAD DUP1 SWAP2 SUB SWAP1 RETURN JUMPDEST PUSH2 0x125 PUSH2 0x2FB JUMP JUMPDEST PUSH1 0x40 MLOAD PUSH2 0x132 SWAP2 SWAP1 PUSH2 0x6C3 JUMP JUMPDEST PUSH1 0x40 MLOAD DUP1 SWAP2 SUB SWAP1 RETURN JUMPDEST PUSH2 0x143 PUSH2 0x301 JUMP JUMPDEST PUSH1 0x40 MLOAD PUSH2 0x153 SWAP5 SWAP4 SWAP3 SWAP2 SWAP1 PUSH2 0x6DE JUMP JUMPDEST PUSH1 0x40 MLOAD DUP1 SWAP2 SUB SWAP1 RETURN JUMPDEST PUSH2 0x164 PUSH2 0x32D JUMP JUMPDEST PUSH1 0x40 MLOAD PUSH2 0x171 SWAP2 SWAP1 PUSH2 0x6C3 JUMP JUMPDEST PUSH1 0x40 MLOAD DUP1 SWAP2 SUB SWAP1 RETURN JUMPDEST PUSH2 0x182 PUSH2 0x333 JUMP JUMPDEST PUSH1 0x40 MLOAD PUSH2 0x18F SWAP2 SWAP1 PUSH2 0x6C3 JUMP JUMPDEST PUSH1 0x40 MLOAD DUP1 SWAP2 SUB SWAP1 RETURN JUMPDEST PUSH2 0x1A0 PUSH2 0x33D JUMP JUMPDEST PUSH1 0x40 MLOAD PUSH2 0x1AD SWAP2 SWAP1 PUSH2 0x764 JUMP JUMPDEST PUSH1 0x40 MLOAD DUP1 SWAP2 SUB SWAP1 RETURN JUMPDEST PUSH2 0x1BE PUSH2 0x361 JUMP JUMPDEST PUSH1 0x40 MLOAD PUSH2 0x1CB SWAP2 SWAP1 PUSH2 0x6C3 JUMP JUMPDEST PUSH1 0x40 MLOAD DUP1 SWAP2 SUB SWAP1 RETURN JUMPDEST PUSH2 0x1DC PUSH2 0x377 JUMP JUMPDEST PUSH1 0x40 MLOAD PUSH2 0x1E9 SWAP2 SWAP1 PUSH2 0x6C3 JUMP JUMPDEST PUSH1 0x40 MLOAD DUP1 SWAP2 SUB SWAP1 RETURN JUMPDEST PUSH2 0x1FA PUSH2 0x37D JUMP JUMPDEST PUSH1 0x40 MLOAD PUSH2 0x207 SWAP2 SWAP1 PUSH2 0x6C3 JUMP JUMPDEST PUSH1 0x40 MLOAD DUP1 SWAP2 SUB SWAP1 RETURN JUMPDEST PUSH1 0x1 SLOAD DUP2 JUMP JUMPDEST PUSH1 0x2 SLOAD DUP2 JUMP JUMPDEST PUSH1 0x3C PUSH1 0x1 SLOAD PUSH2 0x22B SWAP2 SWAP1 PUSH2 0x7AE JUMP JUMPDEST TIMESTAMP LT ISZERO PUSH2 0x26D JUMPI PUSH1 0x40 MLOAD PUSH32 0x8C379A000000000000000000000000000000000000000000000000000000000 DUP2 MSTORE PUSH1 0x4 ADD PUSH2 0x264 SWAP1 PUSH2 0x83F JUMP JUMPDEST PUSH1 0x40 MLOAD DUP1 SWAP2 SUB SWAP1 REVERT JUMPDEST PUSH2 0x275 PUSH2 0x383 JUMP JUMPDEST PUSH2 0x27D PUSH2 0x3EC JUMP JUMPDEST PUSH2 0x285 PUSH2 0x46A JUMP JUMPDEST PUSH2 0x28D PUSH2 0x4CB JUMP JUMPDEST PUSH2 0x295 PUSH2 0x556 JUMP JUMPDEST PUSH1 0x2 PUSH1 0x0 DUP2 SLOAD DUP1 SWAP3 SWAP2 SWAP1 PUSH2 0x2A8 SWAP1 PUSH2 0x85F JUMP JUMPDEST SWAP2 SWAP1 POP SSTORE POP TIMESTAMP PUSH1 0x1 DUP2 SWAP1 SSTORE POP PUSH32 0xC261FFC6367C8DD96D12B0A80AF0FF6B0C303FD212A92B8C3859C68BB484C5BF PUSH1 0x2 SLOAD PUSH1 0x3 SLOAD TIMESTAMP PUSH1 0x40 MLOAD PUSH2 0x2EB SWAP4 SWAP3 SWAP2 SWAP1 PUSH2 0x8A7 JUMP JUMPDEST PUSH1 0x40 MLOAD DUP1 SWAP2 SUB SWAP1 LOG1 JUMP JUMPDEST PUSH1 0x4 SLOAD DUP2 JUMP JUMPDEST PUSH1 0x6 SLOAD DUP2 JUMP JUMPDEST PUSH1 0x0 DUP1 PUSH1 0x0 DUP1 PUSH1 0x2 SLOAD PUSH1 0x3 SLOAD PUSH1 0x6 SLOAD PUSH1 0x3C PUSH1 0x1 SLOAD PUSH2 0x31F SWAP2 SWAP1 PUSH2 0x7AE JUMP JUMPDEST SWAP4 POP SWAP4 POP SWAP4 POP SWAP4 POP SWAP1 SWAP2 SWAP3 SWAP4 JUMP JUMPDEST PUSH1 0x3 SLOAD DUP2 JUMP JUMPDEST PUSH1 0x0 PUSH1 0x3 SLOAD SWAP1 POP SWAP1 JUMP JUMPDEST PUSH1 0x0 DUP1 SLOAD SWAP1 PUSH2 0x100 EXP SWAP1 DIV PUSH20 0xFFFFFFFFFFFFFFFFFFFFFFFFFFFFFFFFFFFFFFFF AND DUP2 JUMP JUMPDEST PUSH1 0x0 PUSH1 0x3C PUSH1 0x1 SLOAD PUSH2 0x372 SWAP2 SWAP1 PUSH2 0x7AE JUMP JUMPDEST SWAP1 POP SWAP1 JUMP JUMPDEST PUSH1 0x7 SLOAD DUP2 JUMP JUMPDEST PUSH1 0x5 SLOAD DUP2 JUMP JUMPDEST PUSH1 0x0 PUSH2 0x38D PUSH2 0x58C JUMP JUMPDEST SWAP1 POP PUSH1 0x50 DUP2 GT ISZERO PUSH2 0x3B7 JUMPI PUSH1 0x5 PUSH1 0x4 PUSH1 0x0 DUP3 DUP3 SLOAD PUSH2 0x3AB SWAP2 SWAP1 PUSH2 0x7AE JUMP JUMPDEST SWAP3 POP POP DUP2 SWAP1 SSTORE POP PUSH2 0x3E9 JUMP JUMPDEST PUSH1 0x32 DUP2 LT ISZERO PUSH2 0x3E8 JUMPI PUSH1 0xA PUSH1 0x4 SLOAD GT PUSH2 0x3D1 JUMPI PUSH1 0xA PUSH2 0x3E1 JUMP JUMPDEST PUSH1 0x2 PUSH1 0x4 SLOAD PUSH2 0x3E0 SWAP2 SWAP1 PUSH2 0x8DE JUMP JUMPDEST JUMPDEST PUSH1 0x4 DUP2 SWAP1 SSTORE POP JUMPDEST JUMPDEST POP JUMP JUMPDEST PUSH2 0x3F4 PUSH2 0x5AE JUMP JUMPDEST PUSH1 0x5 DUP2 SWAP1 SSTORE POP PUSH1 0x0 PUSH2 0x404 PUSH2 0x5CE JUMP JUMPDEST SWAP1 POP PUSH1 0x46 PUSH1 0x5 SLOAD GT ISZERO PUSH2 0x42C JUMPI PUSH1 0x1 PUSH1 0x3 PUSH1 0x0 DUP3 DUP3 SLOAD PUSH2 0x424 SWAP2 SWAP1 PUSH2 0x7AE JUMP JUMPDEST SWAP3 POP POP DUP2 SWAP1 SSTORE POP JUMPDEST PUSH32 0xA42DFB8E08B74FA70F161371E34B0C52492D2B84AC2116481F2BDC213BEB894F PUSH1 0x5 SLOAD DUP3 PUSH1 0x40 MLOAD PUSH2 0x45F SWAP3 SWAP2 SWAP1 PUSH2 0x912 JUMP JUMPDEST PUSH1 0x40 MLOAD DUP1 SWAP2 SUB SWAP1 LOG1 POP JUMP JUMPDEST PUSH1 0x0 PUSH2 0x474 PUSH2 0x5EE JUMP JUMPDEST SWAP1 POP PUSH1 0x0 PUSH2 0x480 PUSH2 0x601 JUMP JUMPDEST SWAP1 POP PUSH1 0x0 PUSH1 0xA PUSH1 0x2 SLOAD PUSH2 0x493 SWAP2 SWAP1 PUSH2 0x96A JUMP JUMPDEST SUB PUSH2 0x4B3 JUMPI PUSH1 0x1 PUSH1 0x3 PUSH1 0x0 DUP3 DUP3 SLOAD PUSH2 0x4AB SWAP2 SWAP1 PUSH2 0x7AE JUMP JUMPDEST SWAP3 POP POP DUP2 SWAP1 SSTORE POP JUMPDEST PUSH1 0x64 PUSH1 0x3 SLOAD GT ISZERO PUSH2 0x4C7 JUMPI PUSH1 0x64 PUSH1 0x3 DUP2 SWAP1 SSTORE POP JUMPDEST POP POP JUMP JUMPDEST PUSH1 0x0 PUSH2 0x4D5 PUSH2 0x622 JUMP JUMPDEST SWAP1 POP PUSH1 0x0 PUSH2 0x4E1 PUSH2 0x644 JUMP JUMPDEST SWAP1 POP PUSH1 0x0 PUSH2 0x4ED PUSH2 0x666 JUMP JUMPDEST SWAP1 POP PUSH1 0x3 DUP2 DUP4 DUP6 PUSH2 0x4FE SWAP2 SWAP1 PUSH2 0x7AE JUMP JUMPDEST PUSH2 0x508 SWAP2 SWAP1 PUSH2 0x7AE JUMP JUMPDEST PUSH2 0x512 SWAP2 SWAP1 PUSH2 0x99B JUMP JUMPDEST PUSH1 0x6 DUP2 SWAP1 SSTORE POP PUSH32 0x70B963CAF5CCC7BD5BEED1D483FA0A15EFC2D32AF8B11D4969ADEF3BEA07FD87 DUP3 DUP5 PUSH1 0x40 MLOAD PUSH2 0x549 SWAP3 SWAP2 SWAP1 PUSH2 0x912 JUMP JUMPDEST PUSH1 0x40 MLOAD DUP1 SWAP2 SUB SWAP1 LOG1 POP POP POP JUMP JUMPDEST PUSH2 0x55E PUSH2 0x688 JUMP JUMPDEST PUSH1 0x7 DUP2 SWAP1 SSTORE POP PUSH1 0x50 PUSH1 0x7 SLOAD GT ISZERO PUSH2 0x58A JUMPI PUSH1 0x2 PUSH1 0x3 PUSH1 0x0 DUP3 DUP3 SLOAD PUSH2 0x582 SWAP2 SWAP1 PUSH2 0x7AE JUMP JUMPDEST SWAP3 POP POP DUP2 SWAP1 SSTORE POP JUMPDEST JUMP JUMPDEST PUSH1 0x0 PUSH1 0x64 PUSH1 0xA PUSH1 0x2 SLOAD PUSH2 0x59F SWAP2 SWAP1 PUSH2 0x9CC JUMP JUMPDEST PUSH2 0x5A9 SWAP2 SWAP1 PUSH2 0x96A JUMP JUMPDEST SWAP1 POP SWAP1 JUMP JUMPDEST PUSH1 0x0 PUSH1 0x1E PUSH1 0x46 TIMESTAMP PUSH2 0x5BF SWAP2 SWAP1 PUSH2 0x96A JUMP JUMPDEST PUSH2 0x5C9 SWAP2 SWAP1 PUSH2 0x7AE JUMP JUMPDEST SWAP1 POP SWAP1 JUMP JUMPDEST PUSH1 0x0 PUSH1 0x14 PUSH1 0x50 TIMESTAMP PUSH2 0x5DF SWAP2 SWAP1 PUSH2 0x96A JUMP JUMPDEST PUSH2 0x5E9 SWAP2 SWAP1 PUSH2 0x7AE JUMP JUMPDEST SWAP1 POP SWAP1 JUMP JUMPDEST PUSH1 0x0 PUSH11 0x52B7D2DCC80CD2E4000000 SWAP1 POP SWAP1 JUMP JUMPDEST PUSH1 0x0 PUSH1 0x64 PUSH2 0x1F4 TIMESTAMP PUSH2 0x613 SWAP2 SWAP1 PUSH2 0x96A JUMP JUMPDEST PUSH2 0x61D SWAP2 SWAP1 PUSH2 0x7AE JUMP JUMPDEST SWAP1 POP SWAP1 JUMP JUMPDEST PUSH1 0x0 PUSH1 0xF PUSH1 0x2 SLOAD PUSH2 0x633 SWAP2 SWAP1 PUSH2 0x96A JUMP JUMPDEST PUSH1 0x55 PUSH2 0x63F SWAP2 SWAP1 PUSH2 0x7AE JUMP JUMPDEST SWAP1 POP SWAP1 JUMP JUMPDEST PUSH1 0x0 PUSH1 0x32 PUSH1 0x2 SLOAD PUSH2 0x655 SWAP2 SWAP1 PUSH2 0x96A JUMP JUMPDEST PUSH1 0xC8 PUSH2 0x661 SWAP2 SWAP1 PUSH2 0x8DE JUMP JUMPDEST SWAP1 POP SWAP1 JUMP JUMPDEST PUSH1 0x0 PUSH1 0xA PUSH1 0x2 SLOAD PUSH2 0x677 SWAP2 SWAP1 PUSH2 0x96A JUMP JUMPDEST PUSH1 0x5A PUSH2 0x683 SWAP2 SWAP1 PUSH2 0x7AE JUMP JUMPDEST SWAP1 POP SWAP1 JUMP JUMPDEST PUSH1 0x0 PUSH1 0x1E PUSH1 0x2 SLOAD PUSH2 0x699 SWAP2 SWAP1 PUSH2 0x96A JUMP JUMPDEST PUSH1 0x46 PUSH2 0x6A5 SWAP2 SWAP1 PUSH2 0x7AE JUMP JUMPDEST SWAP1 POP SWAP1 JUMP JUMPDEST PUSH1 0x0 DUP2 SWAP1 POP SWAP2 SWAP1 POP JUMP JUMPDEST PUSH2 0x6BD DUP2 PUSH2 0x6AA JUMP JUMPDEST DUP3 MSTORE POP POP JUMP JUMPDEST PUSH1 0x0 PUSH1 0x20 DUP3 ADD SWAP1 POP PUSH2 0x6D8 PUSH1 0x0 DUP4 ADD DUP5 PUSH2 0x6B4 JUMP JUMPDEST SWAP3 SWAP2 POP POP JUMP JUMPDEST PUSH1 0x0 PUSH1 0x80 DUP3 ADD SWAP1 POP PUSH2 0x6F3 PUSH1 0x0 DUP4 ADD DUP8 PUSH2 0x6B4 JUMP JUMPDEST PUSH2 0x700 PUSH1 0x20 DUP4 ADD DUP7 PUSH2 0x6B4 JUMP JUMPDEST PUSH2 0x70D PUSH1 0x40 DUP4 ADD DUP6 PUSH2 0x6B4 JUMP JUMPDEST PUSH2 0x71A PUSH1 0x60 DUP4 ADD DUP5 PUSH2 0x6B4 JUMP JUMPDEST SWAP6 SWAP5 POP POP POP POP POP JUMP JUMPDEST PUSH1 0x0 PUSH20 0xFFFFFFFFFFFFFFFFFFFFFFFFFFFFFFFFFFFFFFFF DUP3 AND SWAP1 POP SWAP2 SWAP1 POP JUMP JUMPDEST PUSH1 0x0 PUSH2 0x74E DUP3 PUSH2 0x723 JUMP JUMPDEST SWAP1 POP SWAP2 SWAP1 POP JUMP JUMPDEST PUSH2 0x75E DUP2 PUSH2 0x743 JUMP JUMPDEST DUP3 MSTORE POP POP JUMP JUMPDEST PUSH1 0x0 PUSH1 0x20 DUP3 ADD SWAP1 POP PUSH2 0x779 PUSH1 0x0 DUP4 ADD DUP5 PUSH2 0x755 JUMP JUMPDEST SWAP3 SWAP2 POP POP JUMP JUMPDEST PUSH32 0x4E487B7100000000000000000000000000000000000000000000000000000000 PUSH1 0x0 MSTORE PUSH1 0x11 PUSH1 0x4 MSTORE PUSH1 0x24 PUSH1 0x0 REVERT JUMPDEST PUSH1 0x0 PUSH2 0x7B9 DUP3 PUSH2 0x6AA JUMP JUMPDEST SWAP2 POP PUSH2 0x7C4 DUP4 PUSH2 0x6AA JUMP JUMPDEST SWAP3 POP DUP3 DUP3 ADD SWAP1 POP DUP1 DUP3 GT ISZERO PUSH2 0x7DC JUMPI PUSH2 0x7DB PUSH2 0x77F JUMP JUMPDEST JUMPDEST SWAP3 SWAP2 POP POP JUMP JUMPDEST PUSH1 0x0 DUP3 DUP3 MSTORE PUSH1 0x20 DUP3 ADD SWAP1 POP SWAP3 SWAP2 POP POP JUMP JUMPDEST PUSH32 0x4F7074696D697A6174696F6E20636F6F6C646F776E0000000000000000000000 PUSH1 0x0 DUP3 ADD MSTORE POP JUMP JUMPDEST PUSH1 0x0 PUSH2 0x829 PUSH1 0x15 DUP4 PUSH2 0x7E2 JUMP JUMPDEST SWAP2 POP PUSH2 0x834 DUP3 PUSH2 0x7F3 JUMP JUMPDEST PUSH1 0x20 DUP3 ADD SWAP1 POP SWAP2 SWAP1 POP JUMP JUMPDEST PUSH1 0x0 PUSH1 0x20 DUP3 ADD SWAP1 POP DUP2 DUP2 SUB PUSH1 0x0 DUP4 ADD MSTORE PUSH2 0x858 DUP2 PUSH2 0x81C JUMP JUMPDEST SWAP1 POP SWAP2 SWAP1 POP JUMP JUMPDEST PUSH1 0x0 PUSH2 0x86A DUP3 PUSH2 0x6AA JUMP JUMPDEST SWAP2 POP PUSH32 0xFFFFFFFFFFFFFFFFFFFFFFFFFFFFFFFFFFFFFFFFFFFFFFFFFFFFFFFFFFFFFFFF DUP3 SUB PUSH2 0x89C JUMPI PUSH2 0x89B PUSH2 0x77F JUMP JUMPDEST JUMPDEST PUSH1 0x1 DUP3 ADD SWAP1 POP SWAP2 SWAP1 POP JUMP JUMPDEST PUSH1 0x0 PUSH1 0x60 DUP3 ADD SWAP1 POP PUSH2 0x8BC PUSH1 0x0 DUP4 ADD DUP7 PUSH2 0x6B4 JUMP JUMPDEST PUSH2 0x8C9 PUSH1 0x20 DUP4 ADD DUP6 PUSH2 0x6B4 JUMP JUMPDEST PUSH2 0x8D6 PUSH1 0x40 DUP4 ADD DUP5 PUSH2 0x6B4 JUMP JUMPDEST SWAP5 SWAP4 POP POP POP POP JUMP JUMPDEST PUSH1 0x0 PUSH2 0x8E9 DUP3 PUSH2 0x6AA JUMP JUMPDEST SWAP2 POP PUSH2 0x8F4 DUP4 PUSH2 0x6AA JUMP JUMPDEST SWAP3 POP DUP3 DUP3 SUB SWAP1 POP DUP2 DUP2 GT ISZERO PUSH2 0x90C JUMPI PUSH2 0x90B PUSH2 0x77F JUMP JUMPDEST JUMPDEST SWAP3 SWAP2 POP POP JUMP JUMPDEST PUSH1 0x0 PUSH1 0x40 DUP3 ADD SWAP1 POP PUSH2 0x927 PUSH1 0x0 DUP4 ADD DUP6 PUSH2 0x6B4 JUMP JUMPDEST PUSH2 0x934 PUSH1 0x20 DUP4 ADD DUP5 PUSH2 0x6B4 JUMP JUMPDEST SWAP4 SWAP3 POP POP POP JUMP JUMPDEST PUSH32 0x4E487B7100000000000000000000000000000000000000000000000000000000 PUSH1 0x0 MSTORE PUSH1 0x12 PUSH1 0x4 MSTORE PUSH1 0x24 PUSH1 0x0 REVERT JUMPDEST PUSH1 0x0 PUSH2 0x975 DUP3 PUSH2 0x6AA JUMP JUMPDEST SWAP2 POP PUSH2 0x980 DUP4 PUSH2 0x6AA JUMP JUMPDEST SWAP3 POP DUP3 PUSH2 0x990 JUMPI PUSH2 0x98F PUSH2 0x93B JUMP JUMPDEST JUMPDEST DUP3 DUP3 MOD SWAP1 POP SWAP3 SWAP2 POP POP JUMP JUMPDEST PUSH1 0x0 PUSH2 0x9A6 DUP3 PUSH2 0x6AA JUMP JUMPDEST SWAP2 POP PUSH2 0x9B1 DUP4 PUSH2 0x6AA JUMP JUMPDEST SWAP3 POP DUP3 PUSH2 0x9C1 JUMPI PUSH2 0x9C0 PUSH2 0x93B JUMP JUMPDEST JUMPDEST DUP3 DUP3 DIV SWAP1 POP SWAP3 SWAP2 POP POP JUMP JUMPDEST PUSH1 0x0 PUSH2 0x9D7 DUP3 PUSH2 0x6AA JUMP JUMPDEST SWAP2 POP PUSH2 0x9E2 DUP4 PUSH2 0x6AA JUMP JUMPDEST SWAP3 POP DUP3 DUP3 MUL PUSH2 0x9F0 DUP2 PUSH2 0x6AA JUMP JUMPDEST SWAP2 POP DUP3 DUP3 DIV DUP5 EQ DUP4 ISZERO OR PUSH2 0xA07 JUMPI PUSH2 0xA06 PUSH2 0x77F JUMP JUMPDEST JUMPDEST POP SWAP3 SWAP2 POP POP JUMP INVALID LOG2 PUSH5 0x6970667358 0x22 SLT KECCAK256 0xA6 PUSH5 0xEC9D531AC3 0xC0 CALLDATALOAD PUSH3 0x2BE4CD PUSH21 0xB51871B9955D2AEF4F53D610D9F137E3924064736F PUSH13 0x63430008130033000000000000 "},"methodIdentifiers":{"continuousOptimization()":"1eeb166b","currentProfitRate()":"4c3f89bd","executionEfficiency()":"3c635a15","getAIStatus()":"3f8190dc","getNextOptimizationTime()":"a2f81741","getOptimizedProfitRate()":"5415fec2","lastOptimization()":"011e7b08","learningRate()":"3766bf19","marketVolatilityFactor()":"d1d60beb","optimizationCount()":"1d0affe6","owner()":"8da5cb5b","spreadOptimization()":"a74331df"}}}}}