{"contracts/AINEONFlashLoan.sol":{"AINEONFlashLoan":{"abi":[{"inputs":[],"stateMutability":"nonpayable","type":"constructor"},{"anonymous":false,"inputs":[{"indexed":false,"internalType":"uint256","name":"profit","type":"uint256"},{"indexed":false,"internalType":"uint256","name":"timestamp","type":"uint256"}],"name":"$100MFlashLoanExecuted","type":"event"},{"anonymous":false,"inputs":[{"indexed":false,"internalType":"uint256","name":"improvement","type":"uint256"}],"name":"AIOptimizationApplied","type":"event"},{"anonymous":false,"inputs":[{"indexed":false,"internalType":"address","name":"user","type":"address"},{"indexed":false,"internalType":"uint256","name":"profit","type":"uint256"}],"name":"GaslessTradeExecuted","type":"event"},{"inputs":[],"name":"MAX_FLASH_LOAN","outputs":[{"internalType":"uint256","name":"","type":"uint256"}],"stateMutability":"view","type":"function"},{"inputs":[],"name":"aiOptimizer","outputs":[{"internalType":"address","name":"","type":"address"}],"stateMutability":"view","type":"function"},{"inputs":[],"name":"executeAdvancedFlashLoan","outputs":[],"stateMutability":"nonpayable","type":"function"},{"inputs":[],"name":"executionBot","outputs":[{"internalType":"address","name":"","type":"address"}],"stateMutability":"view","type":"function"},{"inputs":[],"name":"owner","outputs":[{"internalType":"address","name":"","type":"address"}],"stateMutability":"view","type":"function"},{"inputs":[],"name":"riskBot","outputs":[{"internalType":"address","name":"","type":"address"}],"stateMutability":"view","type":"function"},{"inputs":[],"name":"scoutBot","outputs":[{"internalType":"address","name":"","type":"address"}],"stateMutability":"view","type":"function"},{"inputs":[{"internalType":"address","name":"_scout","type":"address"},{"internalType":"address","name":"_executor","type":"address"},{"internalType":"address","name":"_risk","type":"address"},{"internalType":"address","name":"_ai","type":"address"}],"name":"setBotSystem","outputs":[],"stateMutability":"nonpayable","type":"function"},{"inputs":[],"name":"totalProfits","outputs":[{"internalType":"uint256","name":"","type":"uint256"}],"stateMutability":"view","type":"function"}],"evm":{"bytecode":{"linkReferences":{},"object":"608060405234801561001057600080fd5b50336000806101000a81548173ffffffffffffffffffffffffffffffffffffffff021916908373ffffffffffffffffffffffffffffffffffffffff160217905550610a97806100606000396000f3fe608060405234801561001057600080fd5b50600436106100935760003560e01c8063b08d0d6411610066578063b08d0d64146100fc578063bd998cb31461011a578063bef9adf714610138578063ce8b325014610156578063dbc104a61461017457610093565b8063443159d2146100985780636bff1df8146100a257806382c440e4146100c05780638da5cb5b146100de575b600080fd5b6100a0610190565b005b6100aa6103c5565b6040516100b79190610693565b60405180910390f35b6100c86103eb565b6040516100d59190610693565b60405180910390f35b6100e6610411565b6040516100f39190610693565b60405180910390f35b610104610435565b6040516101119190610693565b60405180910390f35b61012261045b565b60405161012f91906106c7565b60405180910390f35b610140610461565b60405161014d9190610693565b60405180910390f35b61015e610487565b60405161016b91906106c7565b60405180910390f35b61018e60048036038101906101899190610713565b610496565b005b600080600260009054906101000a900473ffffffffffffffffffffffffffffffffffffffff1673ffffffffffffffffffffffffffffffffffffffff166317e334516040518163ffffffff1660e01b815260040160408051808303816000875af1158015610201573d6000803e3d6000fd5b505050506040513d601f19601f8201168201806040525081019061022591906107bb565b915091506000600560009054906101000a900473ffffffffffffffffffffffffffffffffffffffff1673ffffffffffffffffffffffffffffffffffffffff166333bd1b6a84846040518363ffffffff1660e01b81526004016102889291906107fb565b6020604051808303816000875af11580156102a7573d6000803e3d6000fd5b505050506040513d601f19601f820116820180604052508101906102cb9190610824565b9050600460009054906101000a900473ffffffffffffffffffffffffffffffffffffffff1673ffffffffffffffffffffffffffffffffffffffff166353eb7c4c84836040518363ffffffff1660e01b815260040161032a9291906107fb565b6020604051808303816000875af1158015610349573d6000803e3d6000fd5b505050506040513d601f19601f8201168201806040525081019061036d9190610889565b6103ac576040517f08c379a00000000000000000000000000000000000000000000000000000000081526004016103a390610913565b60405180910390fd5b6103b683826105a0565b6103c08382610615565b505050565b600460009054906101000a900473ffffffffffffffffffffffffffffffffffffffff1681565b600560009054906101000a900473ffffffffffffffffffffffffffffffffffffffff1681565b60008054906101000a900473ffffffffffffffffffffffffffffffffffffffff1681565b600360009054906101000a900473ffffffffffffffffffffffffffffffffffffffff1681565b60015481565b600260009054906101000a900473ffffffffffffffffffffffffffffffffffffffff1681565b6a52b7d2dcc80cd2e400000081565b83600260006101000a81548173ffffffffffffffffffffffffffffffffffffffff021916908373ffffffffffffffffffffffffffffffffffffffff16021790555082600360006101000a81548173ffffffffffffffffffffffffffffffffffffffff021916908373ffffffffffffffffffffffffffffffffffffffff16021790555081600460006101000a81548173ffffffffffffffffffffffffffffffffffffffff021916908373ffffffffffffffffffffffffffffffffffffffff16021790555080600560006101000a81548173ffffffffffffffffffffffffffffffffffffffff021916908373ffffffffffffffffffffffffffffffffffffffff16021790555050505050565b60006127106019836105b29190610962565b6105bc91906109d3565b905080600160008282546105d09190610a04565b925050819055507f1018bb361135be7f7749fcadaf0cc0f12b6cc5b5fd32c88cad8042d0bfa7fc298142604051610608929190610a38565b60405180910390a1505050565b7f308d7d875e72491889f00c362b0a2f7e5f8d9b0448dca3195fdde0d0b8bcce9033826040516106469291906107fb565b60405180910390a15050565b600073ffffffffffffffffffffffffffffffffffffffff82169050919050565b600061067d82610652565b9050919050565b61068d81610672565b82525050565b60006020820190506106a86000830184610684565b92915050565b6000819050919050565b6106c1816106ae565b82525050565b60006020820190506106dc60008301846106b8565b92915050565b600080fd5b6106f081610672565b81146106fb57600080fd5b50565b60008135905061070d816106e7565b92915050565b6000806000806080858703121561072d5761072c6106e2565b5b600061073b878288016106fe565b945050602061074c878288016106fe565b935050604061075d878288016106fe565b925050606061076e878288016106fe565b91505092959194509250565b600081519050610789816106e7565b92915050565b610798816106ae565b81146107a357600080fd5b50565b6000815190506107b58161078f565b92915050565b600080604083850312156107d2576107d16106e2565b5b60006107e08582860161077a565b92505060206107f1858286016107a6565b9150509250929050565b60006040820190506108106000830185610684565b61081d60208301846106b8565b9392505050565b60006020828403121561083a576108396106e2565b5b6000610848848285016107a6565b91505092915050565b60008115159050919050565b61086681610851565b811461087157600080fd5b50565b6000815190506108838161085d565b92915050565b60006020828403121561089f5761089e6106e2565b5b60006108ad84828501610874565b91505092915050565b600082825260208201905092915050565b7f5269736b20636865636b206661696c6564000000000000000000000000000000600082015250565b60006108fd6011836108b6565b9150610908826108c7565b602082019050919050565b6000602082019050818103600083015261092c816108f0565b9050919050565b7f4e487b7100000000000000000000000000000000000000000000000000000000600052601160045260246000fd5b600061096d826106ae565b9150610978836106ae565b9250828202610986816106ae565b9150828204841483151761099d5761099c610933565b5b5092915050565b7f4e487b7100000000000000000000000000000000000000000000000000000000600052601260045260246000fd5b60006109de826106ae565b91506109e9836106ae565b9250826109f9576109f86109a4565b5b828204905092915050565b6000610a0f826106ae565b9150610a1a836106ae565b9250828201905080821115610a3257610a31610933565b5b92915050565b6000604082019050610a4d60008301856106b8565b610a5a60208301846106b8565b939250505056fea2646970667358221220452c500409df87c7ff23fd82883b0942b211e068cdf96d234a341666fc55522c64736f6c63430008130033","opcodes":"PUSH1 0x80 PUSH1 0x40 MSTORE CALLVALUE DUP1 ISZERO PUSH2 0x10 JUMPI PUSH1 0x0 DUP1 REVERT JUMPDEST POP CALLER PUSH1 0x0 DUP1 PUSH2 0x100 EXP DUP2 SLOAD DUP2 PUSH20 0xFFFFFFFFFFFFFFFFFFFFFFFFFFFFFFFFFFFFFFFF MUL NOT AND SWAP1 DUP4 PUSH20 0xFFFFFFFFFFFFFFFFFFFFFFFFFFFFFFFFFFFFFFFF AND MUL OR SWAP1 SSTORE POP PUSH2 0xA97 DUP1 PUSH2 0x60 PUSH1 0x0 CODECOPY PUSH1 0x0 RETURN INVALID PUSH1 0x80 PUSH1 0x40 MSTORE CALLVALUE DUP1 ISZERO PUSH2 0x10 JUMPI PUSH1 0x0 DUP1 REVERT JUMPDEST POP PUSH1 0x4 CALLDATASIZE LT PUSH2 0x93 JUMPI PUSH1 0x0 CALLDATALOAD PUSH1 0xE0 SHR DUP1 PUSH4 0xB08D0D64 GT PUSH2 0x66 JUMPI DUP1 PUSH4 0xB08D0D64 EQ PUSH2 0xFC JUMPI DUP1 PUSH4 0xBD998CB3 EQ PUSH2 0x11A JUMPI DUP1 PUSH4 0xBEF9ADF7 EQ PUSH2 0x138 JUMPI DUP1 PUSH4 0xCE8B3250 EQ PUSH2 0x156 JUMPI DUP1 PUSH4 0xDBC104A6 EQ PUSH2 0x174 JUMPI PUSH2 0x93 JUMP JUMPDEST DUP1 PUSH4 0x443159D2 EQ PUSH2 0x98 JUMPI DUP1 PUSH4 0x6BFF1DF8 EQ PUSH2 0xA2 JUMPI DUP1 PUSH4 0x82C440E4 EQ PUSH2 0xC0 JUMPI DUP1 PUSH4 0x8DA5CB5B EQ PUSH2 0xDE JUMPI JUMPDEST PUSH1 0x0 DUP1 REVERT JUMPDEST PUSH2 0xA0 PUSH2 0x190 JUMP JUMPDEST STOP JUMPDEST PUSH2 0xAA PUSH2 0x3C5 JUMP JUMPDEST PUSH1 0x40 MLOAD PUSH2 0xB7 SWAP2 SWAP1 PUSH2 0x693 JUMP JUMPDEST PUSH1 0x40 MLOAD DUP1 SWAP2 SUB SWAP1 RETURN JUMPDEST PUSH2 0xC8 PUSH2 0x3EB JUMP JUMPDEST PUSH1 0x40 MLOAD PUSH2 0xD5 SWAP2 SWAP1 PUSH2 0x693 JUMP JUMPDEST PUSH1 0x40 MLOAD DUP1 SWAP2 SUB SWAP1 RETURN JUMPDEST PUSH2 0xE6 PUSH2 0x411 JUMP JUMPDEST PUSH1 0x40 MLOAD PUSH2 0xF3 SWAP2 SWAP1 PUSH2 0x693 JUMP JUMPDEST PUSH1 0x40 MLOAD DUP1 SWAP2 SUB SWAP1 RETURN JUMPDEST PUSH2 0x104 PUSH2 0x435 JUMP JUMPDEST PUSH1 0x40 MLOAD PUSH2 0x111 SWAP2 SWAP1 PUSH2 0x693 JUMP JUMPDEST PUSH1 0x40 MLOAD DUP1 SWAP2 SUB SWAP1 RETURN JUMPDEST PUSH2 0x122 PUSH2 0x45B JUMP JUMPDEST PUSH1 0x40 MLOAD PUSH2 0x12F SWAP2 SWAP1 PUSH2 0x6C7 JUMP JUMPDEST PUSH1 0x40 MLOAD DUP1 SWAP2 SUB SWAP1 RETURN JUMPDEST PUSH2 0x140 PUSH2 0x461 JUMP JUMPDEST PUSH1 0x40 MLOAD PUSH2 0x14D SWAP2 SWAP1 PUSH2 0x693 JUMP JUMPDEST PUSH1 0x40 MLOAD DUP1 SWAP2 SUB SWAP1 RETURN JUMPDEST PUSH2 0x15E PUSH2 0x487 JUMP JUMPDEST PUSH1 0x40 MLOAD PUSH2 0x16B SWAP2 SWAP1 PUSH2 0x6C7 JUMP JUMPDEST PUSH1 0x40 MLOAD DUP1 SWAP2 SUB SWAP1 RETURN JUMPDEST PUSH2 0x18E PUSH1 0x4 DUP1 CALLDATASIZE SUB DUP2 ADD SWAP1 PUSH2 0x189 SWAP2 SWAP1 PUSH2 0x713 JUMP JUMPDEST PUSH2 0x496 JUMP JUMPDEST STOP JUMPDEST PUSH1 0x0 DUP1 PUSH1 0x2 PUSH1 0x0 SWAP1 SLOAD SWAP1 PUSH2 0x100 EXP SWAP1 DIV PUSH20 0xFFFFFFFFFFFFFFFFFFFFFFFFFFFFFFFFFFFFFFFF AND PUSH20 0xFFFFFFFFFFFFFFFFFFFFFFFFFFFFFFFFFFFFFFFF AND PUSH4 0x17E33451 PUSH1 0x40 MLOAD DUP2 PUSH4 0xFFFFFFFF AND PUSH1 0xE0 SHL DUP2 MSTORE PUSH1 0x4 ADD PUSH1 0x40 DUP1 MLOAD DUP1 DUP4 SUB DUP2 PUSH1 0x0 DUP8 GAS CALL ISZERO DUP1 ISZERO PUSH2 0x201 JUMPI RETURNDATASIZE PUSH1 0x0 DUP1 RETURNDATACOPY RETURNDATASIZE PUSH1 0x0 REVERT JUMPDEST POP POP POP POP PUSH1 0x40 MLOAD RETURNDATASIZE PUSH1 0x1F NOT PUSH1 0x1F DUP3 ADD AND DUP3 ADD DUP1 PUSH1 0x40 MSTORE POP DUP2 ADD SWAP1 PUSH2 0x225 SWAP2 SWAP1 PUSH2 0x7BB JUMP JUMPDEST SWAP2 POP SWAP2 POP PUSH1 0x0 PUSH1 0x5 PUSH1 0x0 SWAP1 SLOAD SWAP1 PUSH2 0x100 EXP SWAP1 DIV PUSH20 0xFFFFFFFFFFFFFFFFFFFFFFFFFFFFFFFFFFFFFFFF AND PUSH20 0xFFFFFFFFFFFFFFFFFFFFFFFFFFFFFFFFFFFFFFFF AND PUSH4 0x33BD1B6A DUP5 DUP5 PUSH1 0x40 MLOAD DUP4 PUSH4 0xFFFFFFFF AND PUSH1 0xE0 SHL DUP2 MSTORE PUSH1 0x4 ADD PUSH2 0x288 SWAP3 SWAP2 SWAP1 PUSH2 0x7FB JUMP JUMPDEST PUSH1 0x20 PUSH1 0x40 MLOAD DUP1 DUP4 SUB DUP2 PUSH1 0x0 DUP8 GAS CALL ISZERO DUP1 ISZERO PUSH2 0x2A7 JUMPI RETURNDATASIZE PUSH1 0x0 DUP1 RETURNDATACOPY RETURNDATASIZE PUSH1 0x0 REVERT JUMPDEST POP POP POP POP PUSH1 0x40 MLOAD RETURNDATASIZE PUSH1 0x1F NOT PUSH1 0x1F DUP3 ADD AND DUP3 ADD DUP1 PUSH1 0x40 MSTORE POP DUP2 ADD SWAP1 PUSH2 0x2CB SWAP2 SWAP1 PUSH2 0x824 JUMP JUMPDEST SWAP1 POP PUSH1 0x4 PUSH1 0x0 SWAP1 SLOAD SWAP1 PUSH2 0x100 EXP SWAP1 DIV PUSH20 0xFFFFFFFFFFFFFFFFFFFFFFFFFFFFFFFFFFFFFFFF AND PUSH20 0xFFFFFFFFFFFFFFFFFFFFFFFFFFFFFFFFFFFFFFFF AND PUSH4 0x53EB7C4C DUP5 DUP4 PUSH1 0x40 MLOAD DUP4 PUSH4 0xFFFFFFFF AND PUSH1 0xE0 SHL DUP2 MSTORE PUSH1 0x4 ADD PUSH2 0x32A SWAP3 SWAP2 SWAP1 PUSH2 0x7FB JUMP JUMPDEST PUSH1 0x20 PUSH1 0x40 MLOAD DUP1 DUP4 SUB DUP2 PUSH1 0x0 DUP8 GAS CALL ISZERO DUP1 ISZERO PUSH2 0x349 JUMPI RETURNDATASIZE PUSH1 0x0 DUP1 RETURNDATACOPY RETURNDATASIZE PUSH1 0x0 REVERT JUMPDEST POP POP POP POP PUSH1 0x40 MLOAD RETURNDATASIZE PUSH1 0x1F NOT PUSH1 0x1F DUP3 ADD AND DUP3 ADD DUP1 PUSH1 0x40 MSTORE POP DUP2 ADD SWAP1 PUSH2 0x36D SWAP2 SWAP1 PUSH2 0x889 JUMP JUMPDEST PUSH2 0x3AC JUMPI PUSH1 0x40 MLOAD PUSH32 0x8C379A000000000000000000000000000000000000000000000000000000000 DUP2 MSTORE PUSH1 0x4 ADD PUSH2 0x3A3 SWAP1 PUSH2 0x913 JUMP JUMPDEST PUSH1 0x40 MLOAD DUP1 SWAP2 SUB SWAP1 REVERT JUMPDEST PUSH2 0x3B6 DUP4 DUP3 PUSH2 0x5A0 JUMP JUMPDEST PUSH2 0x3C0 DUP4 DUP3 PUSH2 0x615 JUMP JUMPDEST POP POP POP JUMP JUMPDEST PUSH1 0x4 PUSH1 0x0 SWAP1 SLOAD SWAP1 PUSH2 0x100 EXP SWAP1 DIV PUSH20 0xFFFFFFFFFFFFFFFFFFFFFFFFFFFFFFFFFFFFFFFF AND DUP2 JUMP JUMPDEST PUSH1 0x5 PUSH1 0x0 SWAP1 SLOAD SWAP1 PUSH2 0x100 EXP SWAP1 DIV PUSH20 0xFFFFFFFFFFFFFFFFFFFFFFFFFFFFFFFFFFFFFFFF AND DUP2 JUMP JUMPDEST PUSH1 0x0 DUP1 SLOAD SWAP1 PUSH2 0x100 EXP SWAP1 DIV PUSH20 0xFFFFFFFFFFFFFFFFFFFFFFFFFFFFFFFFFFFFFFFF AND DUP2 JUMP JUMPDEST PUSH1 0x3 PUSH1 0x0 SWAP1 SLOAD SWAP1 PUSH2 0x100 EXP SWAP1 DIV PUSH20 0xFFFFFFFFFFFFFFFFFFFFFFFFFFFFFFFFFFFFFFFF AND DUP2 JUMP JUMPDEST PUSH1 0x1 SLOAD DUP2 JUMP JUMPDEST PUSH1 0x2 PUSH1 0x0 SWAP1 SLOAD SWAP1 PUSH2 0x100 EXP SWAP1 DIV PUSH20 0xFFFFFFFFFFFFFFFFFFFFFFFFFFFFFFFFFFFFFFFF AND DUP2 JUMP JUMPDEST PUSH11 0x52B7D2DCC80CD2E4000000 DUP2 JUMP JUMPDEST DUP4 PUSH1 0x2 PUSH1 0x0 PUSH2 0x100 EXP DUP2 SLOAD DUP2 PUSH20 0xFFFFFFFFFFFFFFFFFFFFFFFFFFFFFFFFFFFFFFFF MUL NOT AND SWAP1 DUP4 PUSH20 0xFFFFFFFFFFFFFFFFFFFFFFFFFFFFFFFFFFFFFFFF AND MUL OR SWAP1 SSTORE POP DUP3 PUSH1 0x3 PUSH1 0x0 PUSH2 0x100 EXP DUP2 SLOAD DUP2 PUSH20 0xFFFFFFFFFFFFFFFFFFFFFFFFFFFFFFFFFFFFFFFF MUL NOT AND SWAP1 DUP4 PUSH20 0xFFFFFFFFFFFFFFFFFFFFFFFFFFFFFFFFFFFFFFFF AND MUL OR SWAP1 SSTORE POP DUP2 PUSH1 0x4 PUSH1 0x0 PUSH2 0x100 EXP DUP2 SLOAD DUP2 PUSH20 0xFFFFFFFFFFFFFFFFFFFFFFFFFFFFFFFFFFFFFFFF MUL NOT AND SWAP1 DUP4 PUSH20 0xFFFFFFFFFFFFFFFFFFFFFFFFFFFFFFFFFFFFFFFF AND MUL OR SWAP1 SSTORE POP DUP1 PUSH1 0x5 PUSH1 0x0 PUSH2 0x100 EXP DUP2 SLOAD DUP2 PUSH20 0xFFFFFFFFFFFFFFFFFFFFFFFFFFFFFFFFFFFFFFFF MUL NOT AND SWAP1 DUP4 PUSH20 0xFFFFFFFFFFFFFFFFFFFFFFFFFFFFFFFFFFFFFFFF AND MUL OR SWAP1 SSTORE POP POP POP POP POP JUMP JUMPDEST PUSH1 0x0 PUSH2 0x2710 PUSH1 0x19 DUP4 PUSH2 0x5B2 SWAP2 SWAP1 PUSH2 0x962 JUMP JUMPDEST PUSH2 0x5BC SWAP2 SWAP1 PUSH2 0x9D3 JUMP JUMPDEST SWAP1 POP DUP1 PUSH1 0x1 PUSH1 0x0 DUP3 DUP3 SLOAD PUSH2 0x5D0 SWAP2 SWAP1 PUSH2 0xA04 JUMP JUMPDEST SWAP3 POP POP DUP2 SWAP1 SSTORE POP PUSH32 0x1018BB361135BE7F7749FCADAF0CC0F12B6CC5B5FD32C88CAD8042D0BFA7FC29 DUP2 TIMESTAMP PUSH1 0x40 MLOAD PUSH2 0x608 SWAP3 SWAP2 SWAP1 PUSH2 0xA38 JUMP JUMPDEST PUSH1 0x40 MLOAD DUP1 SWAP2 SUB SWAP1 LOG1 POP POP POP JUMP JUMPDEST PUSH32 0x308D7D875E72491889F00C362B0A2F7E5F8D9B0448DCA3195FDDE0D0B8BCCE90 CALLER DUP3 PUSH1 0x40 MLOAD PUSH2 0x646 SWAP3 SWAP2 SWAP1 PUSH2 0x7FB JUMP JUMPDEST PUSH1 0x40 MLOAD DUP1 SWAP2 SUB SWAP1 LOG1 POP POP JUMP JUMPDEST PUSH1 0x0 PUSH20 0xFFFFFFFFFFFFFFFFFFFFFFFFFFFFFFFFFFFFFFFF DUP3 AND SWAP1 POP SWAP2 SWAP1 POP JUMP JUMPDEST PUSH1 0x0 PUSH2 0x67D DUP3 PUSH2 0x652 JUMP JUMPDEST SWAP1 POP SWAP2 SWAP1 POP JUMP JUMPDEST PUSH2 0x68D DUP2 PUSH2 0x672 JUMP JUMPDEST DUP3 MSTORE POP POP JUMP JUMPDEST PUSH1 0x0 PUSH1 0x20 DUP3 ADD SWAP1 POP PUSH2 0x6A8 PUSH1 0x0 DUP4 ADD DUP5 PUSH2 0x684 JUMP JUMPDEST SWAP3 SWAP2 POP POP JUMP JUMPDEST PUSH1 0x0 DUP2 SWAP1 POP SWAP2 SWAP1 POP JUMP JUMPDEST PUSH2 0x6C1 DUP2 PUSH2 0x6AE JUMP JUMPDEST DUP3 MSTORE POP POP JUMP JUMPDEST PUSH1 0x0 PUSH1 0x20 DUP3 ADD SWAP1 POP PUSH2 0x6DC PUSH1 0x0 DUP4 ADD DUP5 PUSH2 0x6B8 JUMP JUMPDEST SWAP3 SWAP2 POP POP JUMP JUMPDEST PUSH1 0x0 DUP1 REVERT JUMPDEST PUSH2 0x6F0 DUP2 PUSH2 0x672 JUMP JUMPDEST DUP2 EQ PUSH2 0x6FB JUMPI PUSH1 0x0 DUP1 REVERT JUMPDEST POP JUMP JUMPDEST PUSH1 0x0 DUP2 CALLDATALOAD SWAP1 POP PUSH2 0x70D DUP2 PUSH2 0x6E7 JUMP JUMPDEST SWAP3 SWAP2 POP POP JUMP JUMPDEST PUSH1 0x0 DUP1 PUSH1 0x0 DUP1 PUSH1 0x80 DUP6 DUP8 SUB SLT ISZERO PUSH2 0x72D JUMPI PUSH2 0x72C PUSH2 0x6E2 JUMP JUMPDEST JUMPDEST PUSH1 0x0 PUSH2 0x73B DUP8 DUP3 DUP9 ADD PUSH2 0x6FE JUMP JUMPDEST SWAP5 POP POP PUSH1 0x20 PUSH2 0x74C DUP8 DUP3 DUP9 ADD PUSH2 0x6FE JUMP JUMPDEST SWAP4 POP POP PUSH1 0x40 PUSH2 0x75D DUP8 DUP3 DUP9 ADD PUSH2 0x6FE JUMP JUMPDEST SWAP3 POP POP PUSH1 0x60 PUSH2 0x76E DUP8 DUP3 DUP9 ADD PUSH2 0x6FE JUMP JUMPDEST SWAP2 POP POP SWAP3 SWAP6 SWAP2 SWAP5 POP SWAP3 POP JUMP JUMPDEST PUSH1 0x0 DUP2 MLOAD SWAP1 POP PUSH2 0x789 DUP2 PUSH2 0x6E7 JUMP JUMPDEST SWAP3 SWAP2 POP POP JUMP JUMPDEST PUSH2 0x798 DUP2 PUSH2 0x6AE JUMP JUMPDEST DUP2 EQ PUSH2 0x7A3 JUMPI PUSH1 0x0 DUP1 REVERT JUMPDEST POP JUMP JUMPDEST PUSH1 0x0 DUP2 MLOAD SWAP1 POP PUSH2 0x7B5 DUP2 PUSH2 0x78F JUMP JUMPDEST SWAP3 SWAP2 POP POP JUMP JUMPDEST PUSH1 0x0 DUP1 PUSH1 0x40 DUP4 DUP6 SUB SLT ISZERO PUSH2 0x7D2 JUMPI PUSH2 0x7D1 PUSH2 0x6E2 JUMP JUMPDEST JUMPDEST PUSH1 0x0 PUSH2 0x7E0 DUP6 DUP3 DUP7 ADD PUSH2 0x77A JUMP JUMPDEST SWAP3 POP POP PUSH1 0x20 PUSH2 0x7F1 DUP6 DUP3 DUP7 ADD PUSH2 0x7A6 JUMP JUMPDEST SWAP2 POP POP SWAP3 POP SWAP3 SWAP1 POP JUMP JUMPDEST PUSH1 0x0 PUSH1 0x40 DUP3 ADD SWAP1 POP PUSH2 0x810 PUSH1 0x0 DUP4 ADD DUP6 PUSH2 0x684 JUMP JUMPDEST PUSH2 0x81D PUSH1 0x20 DUP4 ADD DUP5 PUSH2 0x6B8 JUMP JUMPDEST SWAP4 SWAP3 POP POP POP JUMP JUMPDEST PUSH1 0x0 PUSH1 0x20 DUP3 DUP5 SUB SLT ISZERO PUSH2 0x83A JUMPI PUSH2 0x839 PUSH2 0x6E2 JUMP JUMPDEST JUMPDEST PUSH1 0x0 PUSH2 0x848 DUP5 DUP3 DUP6 ADD PUSH2 0x7A6 JUMP JUMPDEST SWAP2 POP POP SWAP3 SWAP2 POP POP JUMP JUMPDEST PUSH1 0x0 DUP2 ISZERO ISZERO SWAP1 POP SWAP2 SWAP1 POP JUMP JUMPDEST PUSH2 0x866 DUP2 PUSH2 0x851 JUMP JUMPDEST DUP2 EQ PUSH2 0x871 JUMPI PUSH1 0x0 DUP1 REVERT JUMPDEST POP JUMP JUMPDEST PUSH1 0x0 DUP2 MLOAD SWAP1 POP PUSH2 0x883 DUP2 PUSH2 0x85D JUMP JUMPDEST SWAP3 SWAP2 POP POP JUMP JUMPDEST PUSH1 0x0 PUSH1 0x20 DUP3 DUP5 SUB SLT ISZERO PUSH2 0x89F JUMPI PUSH2 0x89E PUSH2 0x6E2 JUMP JUMPDEST JUMPDEST PUSH1 0x0 PUSH2 0x8AD DUP5 DUP3 DUP6 ADD PUSH2 0x874 JUMP JUMPDEST SWAP2 POP POP SWAP3 SWAP2 POP POP JUMP JUMPDEST PUSH1 0x0 DUP3 DUP3 MSTORE PUSH1 0x20 DUP3 ADD SWAP1 POP SWAP3 SWAP2 POP POP JUMP JUMPDEST PUSH32 0x5269736B20636865636B206661696C6564000000000000000000000000000000 PUSH1 0x0 DUP3 ADD MSTORE POP JUMP JUMPDEST PUSH1 0x0 PUSH2 0x8FD PUSH1 0x11 DUP4 PUSH2 0x8B6 JUMP JUMPDEST SWAP2 POP PUSH2 0x908 DUP3 PUSH2 0x8C7 JUMP JUMPDEST PUSH1 0x20 DUP3 ADD SWAP1 POP SWAP2 SWAP1 POP JUMP JUMPDEST PUSH1 0x0 PUSH1 0x20 DUP3 ADD SWAP1 POP DUP2 DUP2 SUB PUSH1 0x0 DUP4 ADD MSTORE PUSH2 0x92C DUP2 PUSH2 0x8F0 JUMP JUMPDEST SWAP1 POP SWAP2 SWAP1 POP JUMP JUMPDEST PUSH32 0x4E487B7100000000000000000000000000000000000000000000000000000000 PUSH1 0x0 MSTORE PUSH1 0x11 PUSH1 0x4 MSTORE PUSH1 0x24 PUSH1 0x0 REVERT JUMPDEST PUSH1 0x0 PUSH2 0x96D DUP3 PUSH2 0x6AE JUMP JUMPDEST SWAP2 POP PUSH2 0x978 DUP4 PUSH2 0x6AE JUMP JUMPDEST SWAP3 POP DUP3 DUP3 MUL PUSH2 0x986 DUP2 PUSH2 0x6AE JUMP JUMPDEST SWAP2 POP DUP3 DUP3 DIV DUP5 EQ DUP4 ISZERO OR PUSH2 0x99D JUMPI PUSH2 0x99C PUSH2 0x933 JUMP JUMPDEST JUMPDEST POP SWAP3 SWAP2 POP POP JUMP JUMPDEST PUSH32 0x4E487B7100000000000000000000000000000000000000000000000000000000 PUSH1 0x0 MSTORE PUSH1 0x12 PUSH1 0x4 MSTORE PUSH1 0x24 PUSH1 0x0 REVERT JUMPDEST PUSH1 0x0 PUSH2 0x9DE DUP3 PUSH2 0x6AE JUMP JUMPDEST SWAP2 POP PUSH2 0x9E9 DUP4 PUSH2 0x6AE JUMP JUMPDEST SWAP3 POP DUP3 PUSH2 0x9F9 JUMPI PUSH2 0x9F8 PUSH2 0x9A4 JUMP JUMPDEST JUMPDEST DUP3 DUP3 DIV SWAP1 POP SWAP3 SWAP2 POP POP JUMP JUMPDEST PUSH1 0x0 PUSH2 0xA0F DUP3 PUSH2 0x6AE JUMP JUMPDEST SWAP2 POP PUSH2 0xA1A DUP4 PUSH2 0x6AE JUMP JUMPDEST SWAP3 POP DUP3 DUP3 ADD SWAP1 POP DUP1 DUP3 GT ISZERO PUSH2 0xA32 JUMPI PUSH2 0xA31 PUSH2 0x933 JUMP JUMPDEST JUMPDEST SWAP3 SWAP2 POP POP JUMP JUMPDEST PUSH1 0x0 PUSH1 0x40 DUP3 ADD SWAP1 POP PUSH2 0xA4D PUSH1 0x0 DUP4 ADD DUP6 PUSH2 0x6B8 JUMP JUMPDEST PUSH2 0xA5A PUSH1 0x20 DUP4 ADD DUP5 PUSH2 0x6B8 JUMP JUMPDEST SWAP4 SWAP3 POP POP POP JUMP INVALID LOG2 PUSH5 0x6970667358 0x22 SLT KECCAK256 GASLIMIT 0x2C POP DIV MULMOD 0xDF DUP8 0xC7 SELFDESTRUCT 0x23 REVERT DUP3 DUP9 EXTCODESIZE MULMOD TIMESTAMP 0xB2 GT 0xE0 PUSH9 0xCDF96D234A341666FC SSTORE MSTORE 0x2C PUSH5 0x736F6C6343 STOP ADDMOD SGT STOP CALLER "},"methodIdentifiers":{"MAX_FLASH_LOAN()":"ce8b3250","aiOptimizer()":"82c440e4","executeAdvancedFlashLoan()":"443159d2","executionBot()":"b08d0d64","owner()":"8da5cb5b","riskBot()":"6bff1df8","scoutBot()":"bef9adf7","setBotSystem(address,address,address,address)":"dbc104a6","totalProfits()":"bd998cb3"}}}}}