{
  "_format": "hh-sol-artifact-1",
  "contractName": "AIOptimizer",
  "sourceName": "contracts/AIOptimizer.sol",
  "abi": [
    {
      "inputs": [],
      "stateMutability": "nonpayable",
      "type": "constructor"
    },
    {
      "inputs": [],
      "name": "optimizeTrade",
      "outputs": [
        {
          "internalType": "uint256",
          "name": "",
          "type": "uint256"
        }
      ],
      "stateMutability": "pure",
      "type": "function"
    },
    {
      "inputs": [],
      "name": "owner",
      "outputs": [
        {
          "internalType": "address",
          "name": "",
          "type": "address"
        }
      ],
      "stateMutability": "view",
      "type": "function"
    }
  ],
  "bytecode": "0x608060405234801561001057600080fd5b50336000806101000a81548173ffffffffffffffffffffffffffffffffffffffff021916908373ffffffffffffffffffffffffffffffffffffffff160217905550610173806100606000396000f3fe608060405234801561001057600080fd5b50600436106100365760003560e01c806330128c991461003b5780638da5cb5b14610059575b600080fd5b610043610077565b60405161005091906100c6565b60405180910390f35b610061610089565b60405161006e9190610122565b60405180910390f35b6000693f870857a3e0e3800000905090565b60008054906101000a900473ffffffffffffffffffffffffffffffffffffffff1681565b6000819050919050565b6100c0816100ad565b82525050565b60006020820190506100db60008301846100b7565b92915050565b600073ffffffffffffffffffffffffffffffffffffffff82169050919050565b600061010c826100e1565b9050919050565b61011c81610101565b82525050565b60006020820190506101376000830184610113565b9291505056fea26469706673582212202cc3d7e312767c1cc2ac1ad63c950c03437271f97e1937410177bc9e922a61e364736f6c63430008130033",
  "linkReferences": {},
  "deployedLinkReferences": {}
}